:020000040800F2
:1000000000000120A5450008553A0008613A0008A3
:10001000693A0008713A0008793A000800000000C7
:10002000000000000000000000000000813A00080D
:100030008F3A0008000000009D3A0008AB3A000823
:10004000F5450008F5450008F5450008F5450008A8
:10005000F5450008F5450008F5450008F545000898
:10006000F5450008F5450008F5450008F545000888
:10007000F5450008F5450008F5450008F545000878
:10008000F5450008F5450008F545000800000000AA
:10009000000000000000000000000000F54500081E
:1000A000F5450008F5450008B93A0008F54500088F
:1000B000F5450008F5450008F5450008F545000838
:1000C000F5450008F5450008F5450008F545000828
:1000D000F5450008F5450008F5450008000000005A
:1000E000F5450008F5450008F5450008000000004A
:1000F000000000000000000000000000F5450008BE
:1001000000000000F5450008F5450008F545000829
:1001100000000000000000000000000000000000DF
:10012000F5450008F5450008F5450008F5450008C7
:10013000F54500080000000000000000000000007D
:10014000000000000000000000000000E53A000888
:10015000F5450008F5450008F5450008F545000897
:10016000F5450008F545000800000000000000000B
:10017000000000000000000000000000000000007F
:1001800000000000F545000800000000000000002D
:04019000F545000829
:1001A00010B5054C237833B9044B13B10448AFF3B1
:1001B00000800123237010BD6402002000000000B5
:1001C000D0DC000808B5034B1BB103490348AFF36B
:1001D000008008BD0000000068020020D0DC00089C
:1001E00010F8012B11F8013B012A28BF9A42F7D0E1
:1001F000D01A7047034613F8012B002AFBD1181AB6
:1002000001387047000000000000000000000000FE
:1002100001F0FF01102A2BDB10F0070F08D010F8B7
:10022000013B013A8B422DD010F0070F42B3F6D1BB
:10023000F0B441EA012141EA014122F007047FF0D4
:1002400000070023F0E80256083C85EA010586EA2B
:10025000010685FA47F5A3FA87F586FA47F6A5FA67
:1002600087F68EB9EED1F0BC01F0FF0102F0070273
:1002700032B110F8013B013A83EA010313B1F8D11E
:100280000020704701387047002D06BF35460338FF
:10029000073815F0010F07D1013015F4807F02BF38
:1002A000013015F4C03F0130F0BC0138704700BF89
:1002B00053B94AB9002908BF00281CBF4FF0FF31CD
:1002C0004FF0FF3000F06AB9ADF1080C6DE904CED3
:1002D00000F006F8DDF804E0DDE9022304B0704721
:1002E0002DE9F047089D0C46002B4ED194468C45D5
:1002F0008646B2FA82F262D94AB1C2F12003914035
:1003000020FA03F30CFA02FC194300FA02FE4FEA4A
:100310001C471FFA8CF6B1FBF7F44FEA1E4307FBAC
:10032000141143EA014304FB06F199420AD91CEB7C
:10033000030304F1FF3080F01281994240F20F81F3
:10034000023C6344591A1FFA8EF3B1FBF7F007FB26
:10035000101143EA014300FB06F69E420AD91CEB4A
:10036000030300F1FF3180F0FC809E4240F2F980EF
:10037000634402389B1B40EA044000211DB1D34076
:100380000022C5E90032BDE8F0878B4205D90DB1E6
:10039000C5E9000100210846F5E7B3FA83F1002919
:1003A00046D1A34202D39042C0F0F080861A64EB9B
:1003B00003030120002DE6D0C5E90063E3E7002A2E
:1003C00040F09080A1EB0C044FEA1C481FFA8CF718
:1003D0000121B4FBF8F64FEA1E4308FB164443EA3A
:1003E000044307FB06F0984208D91CEB030306F10F
:1003F000FF3402D2984200F2CD8026461C1A1FFA22
:100400008EF3B4FBF8F008FB104443EA044300FB0E
:1004100007F79F4208D91CEB030300F1FF3402D217
:100420009F4200F2B0802046DB1B40EA0640A5E771
:10043000C1F120068B4022FA06F71F4320FA06FC82
:1004400004FA01F343EA0C03F44000FA01F8380C13
:100450004FEA1349B4FBF0FE1FFA87FC00FB1E4471
:1004600049EA04440EFB0CF9A14502FA01F20AD94B
:100470003C190EF1FF3A80F08480A14540F2818062
:10048000AEF1020E3C44A4EB09041FFA83F9B4FB5D
:10049000F0F300FB134449EA044403FB0CFCA445BD
:1004A00007D93C1903F1FF3067D2A44565D9023B57
:1004B0003C4443EA0E40A0FB0293A4EB0C049C4294
:1004C000CE469C4651D34ED055B1B8EB0E0364EBEB
:1004D0000C0404FA06F6CB401E43CC40C5E9006488
:1004E000002150E7C2F1200320FA03F10CFA02FCCC
:1004F00024FA03F394400C434FEA1C4800FA02FE2E
:100500001FFA8CF7B3FBF8F008FB1031230C43EA19
:10051000014300FB07F1994208D91CEB030300F1EA
:10052000FF362CD299422AD9023863445B1AA4B20E
:10053000B3FBF8F108FB113344EA034401FB07F372
:10054000A34208D91CEB040401F1FF3613D2A342E5
:1005500011D902396444E41A41EA004139E70446FA
:10056000F0E6084606E7C845AED2B9EB020E63EBEB
:10057000070C0138A8E73146EDE7034699E7304616
:10058000D4E7D6467FE7634402384DE70646234664
:1005900008460FE7023E634430E700BF704700BFE4
:1005A00080B400AF044BDB681B0A03F00703184656
:1005B000BD465DF8047B704700ED00E080B483B079
:1005C00000AF0346FB7197F90730002B0BDBFB797B
:1005D00003F01F02074997F907305B09012000FA71
:1005E00002F241F8232000BF0C37BD465DF8047BC2
:1005F000704700BF00E100E080B483B000AF034665
:100600003960FB7197F90730002B0ADB3B68DAB2DF
:100610000C4997F907301201D2B20B4483F800233A
:100620000AE03B68DAB20849FB7903F00F03043BA8
:100630001201D2B20B441A7600BF0C37BD465DF8EA
:10064000047B704700E100E000ED00E080B489B079
:1006500000AFF860B9607A60FB6803F00703FB61E4
:10066000FB69C3F10703042B28BF0423BB61FB69AB
:100670000433062B02D9FB69033B00E000237B61B6
:100680004FF0FF32BB6902FA03F3DA43BB681A404A
:100690007B699A404FF0FF317B6901FA03F3D9433C
:1006A0007B680B40134318462437BD465DF8047B36
:1006B0007047000080B400AFBFF34F8F00BF064B00
:1006C000DB6803F4E0620449044B1343CB60BFF3DF
:1006D0004F8F00BF00BFFDE700ED00E00400FA050A
:1006E00080B483B000AF78607B681B6843F0010280
:1006F0007B681A6000BF0C37BD465DF8047B70470D
:1007000080B483B000AF78607B681B6843F08002E0
:100710007B681A6000BF0C37BD465DF8047B7047EC
:1007200080B483B000AF78607B68DB6843F001027F
:100730007B68DA6000BF0C37BD465DF8047B70470C
:1007400080B485B000AF7860084B5A6C07497B686D
:1007500013434B64054B5A6C7B681340FB60FB688A
:1007600000BF1437BD465DF8047B70470038024077
:1007700080B489B000AFF860B9607A600023FB6193
:100780000023BB6144E0FA68FB6913441B781A0438
:10079000FB690133F9680B441B781B021344FA69A7
:1007A0000232F9680A44127813447B617B699B0C1E
:1007B00003F03F02BB69591CB96179680B44544985
:1007C0008A5C1A707B691B0B03F03F02BB69591CE2
:1007D000B96179680B444E498A5C1A707B699B0940
:1007E00003F03F02BB69591CB96179680B44484961
:1007F0008A5C1A707B6903F03F02BB69591CB961BE
:1008000079680B4442498A5C1A70FB690333FB61C7
:10081000FB690333BA689A42B5D2FB690233BA68FE
:100820009A4238D1FA68FB6913441B781A04FB69B1
:100830000133F9680B441B781B0213447B617B690D
:100840009B0C03F03F02BB69591CB96179680B44EA
:100850002F498A5C1A707B691B0B03F03F02BB694E
:10086000591CB96179680B4429498A5C1A707B6903
:100870009B0903F03F02BB69591CB96179680B44BD
:1008800023498A5C1A70BB695A1CBA617A6813449E
:100890003D221A7030E0FB690133BA689A422BD1CD
:1008A000FA68FB6913441B781B047B617B699B0C12
:1008B00003F03F02BB69591CB96179680B441449C4
:1008C0008A5C1A707B691B0B03F03F02BB69591CE1
:1008D000B96179680B440E498A5C1A70BB695A1C6D
:1008E000BA617A6813443D221A70BB695A1CBA6116
:1008F0007A6813443D221A707A68BB691344002257
:100900001A7000BF2437BD465DF8047B704700BFF6
:1009100084F5000880B594B002AF381D0E4B0093EB
:100920000E4B0F4A40210BF013FC78647B6C002BBC
:1009300009DD7B6C3F2B06DC796C3B1D094A1846B0
:10094000FFF716FF03E0074B00221A7000BF00BF3D
:100950004837BD4680BD00BF2000002000000020B9
:1009600064E100088402002080B596B000AF786092
:10097000224978680BF0DAFD78657B6D002B01D198
:10098000002337E07B6D15337B650D21786D0BF00F
:100990003EFD38653B6D002B01D100232AE03A6D06
:1009A0007B6DD31AFB640023FB6007F110033C222C
:1009B000002118460BF014FDFB6C3E2B01DD0023DB
:1009C00018E0FA6C07F10C03796D18460BF03EFD48
:1009D00007F10C02FB6C134400221A7007F10C03A0
:1009E00007491846FFF7FCFB0346002B0CBF012309
:1009F0000023DBB218465837BD4680BD6CE10008C5
:100A00008402002080B584B000AF0346FB71084B20
:100A1000FB60F868FFF7EEFB03469AB2FB79F968D2
:100A2000184602F0C1FD00BF1037BD4680BD00BFB3
:100A300084E1000880B584B000AFF860B9607A60E6
:100A40007B689BB21946B8680AF078FD7B68184647
:100A50001037BD4680BD000080B500AF00221021D8
:100A6000024804F0D9FB00BF80BD00BF0000024077
:100A700080B500AF01221021024804F0CDFB00BF79
:100A800080BD00BF0000024080B582B000AF78603A
:100A90000B467B807A8864237968034806F04CFC17
:100AA00000BF0837BD4680BD5003002080B582B02E
:100AB00000AF78600B467B807A88642379680348AE
:100AC00006F0F6FA00BF0837BD4680BD500300208F
:100AD00080B582B000AFFB1D01211846FFF7D4FF9F
:100AE000FB7918460837BD4680BD80B582B000AF9F
:100AF0000346FB71FB1D01211846FFF7D7FF00BF1E
:100B00000837BD4680BD80B485B000AF78603960DD
:100B10000023FB600023BB600AE07A68BB681344D3
:100B20001B781A46FB685340FB60BB680133BB600F
:100B3000BA683B689A42F0D3FB6818461437BD4642
:100B40005DF8047B704700002DE9B043C4B000AFEE
:100B500007F11803DF22002118460BF041FC6F4B10
:100B6000BB616F4B07F11C041D460FCD0FC495E808
:100B7000030020600434218002340B0C2370002316
:100B8000C7F80C311EE007F11802D7F80C311B0131
:100B900018331344D81CD7F80C311B01614A134495
:100BA0000F2219460BF052FCD7F80C311B0103F54C
:100BB00088733B44CE3B00221A70D7F80C310133C6
:100BC000C7F80C31D7F80C31072BDCDD07F118031F
:100BD0009B331F22544918460BF038FC002387F83A
:100BE000D23007F11803BB331F22504918460BF0CF
:100BF0002DFC002387F8F230DB23C7F8043107F11E
:100C00001803D7F804111846FFF77DFF0346C7F80D
:100C1000F330D7F8F330194645480BF029FA03F0C2
:100C2000E5FE444BB322DA6007F58873A3F58673BB
:100C30001A460023136053609360D360136107F575
:100C40008873A3F5867300221A6007F58873A3F5ED
:100C5000867305229A6007F58873A3F586730122CF
:100C6000DA6007F58873A3F5867302221A6107F527
:100C70008873A3F5887300221A603A463B1D11461B
:100C8000184604F025F80346002B05D02A480BF03F
:100C900057FA03F0CDFE3BE007F11803C7F8003127
:100CA0003823C7F8FC30254BC7F8F8300023C7F8C5
:100CB000083122E0D7F808319A00D7F8F830D11877
:100CC000D7F808319B00D7F8002113441B68002295
:100CD0009846914642464B46022003F035FE0346B5
:100CE000002B05D0D7F8081115480BF0C1F90AE020
:100CF000D7F808310133C7F80831D7F80821D7F8F9
:100D0000FC309A42D6D303F093FE0E480BF018FA4B
:100D100007F58877BD46BDE8B08300BF3512CDAB7F
:100D2000C40000204000002000000020200000201F
:100D300004E20008003C02401CE200080000030836
:100D400030E2000854E20008B0B584B000AF434B75
:100D5000BB60BB681B68424A194642480BF088F9E1
:100D6000BB681B683E4A934204D03F480BF0E8F949
:100D700000236EE0DB237B607968B868FFF7C3FE71
:100D80003860BB68D3F8DB303A68194637480BF057
:100D90006FF9BB68D3F8DB303A689A4204D0344824
:100DA0000BF0CEF9002354E0BB680433314A1446FB
:100DB0001D4628686968AA68EB680FC42869206026
:100DC000AB8AAA7DA3801346A3710023FB6023E0B6
:100DD000FB681B01284A9818FB681B011833BA6886
:100DE000134403330F2219460BF030FB224AFB68F1
:100DF0001B0113440F3300221A70FB681B011E4AAB
:100E000013441A46F9681D480BF032F9012003F02B
:100E100065FCFB680133FB60FB68072BD8DDBB6812
:100E20009B331F22194616480BF010FB144B00226F
:100E3000DA77BB68BB331F22194612480BF006FB5A
:100E4000104B0022DA77FFF765FD0F480BF078F9B9
:100E5000012318461037BD46B0BD00BF000003088F
:100E60003512CDAB70E200089CE20008BCE200083D
:100E7000ECE20008C40000204000002018E3000855
:100E800000000020200000202CE3000880B5A8B05E
:100E900000AF3C4A07F1940392E803001860043362
:100EA0001980394BC7F890306FF07F43C7F88C300A
:100EB000364BC7F888304FF00833C7F88430344BCE
:100EC00007F1940292E80300186004331980D7F800
:100ED00090302F4AC2F80630D7F88C302C4AC2F82E
:100EE0000A30D7F888302A4AC2F80E30D7F8843052
:100EF000274AC2F81230264B01229A75254A3B1D1B
:100F00001146802218460BF0A2FB0023C7F89C3044
:100F10001AE0D7F89C301B011F4A98183A1DD7F8E1
:100F20009C301B0113440F2219460BF08FFA1A4A0A
:100F3000D7F89C301B0113440F3300221A70D7F8E6
:100F40009C300133C7F89C30D7F89C30072BE0DD8C
:100F50001F22124912480BF079FA114B0022DA775E
:100F60001F22104910480BF071FA0F4B0022DA775C
:100F7000FFF7D0FC0D480BF0E3F800BFA037BD46EB
:100F800080BD00BF7CE30008C0A800FAC0A8000133
:100F9000C400002084E30008400000204CE3000867
:100FA0000000002054E300082000002060E3000857
:100FB000B0B5ADF5CD5D02AF044607F69810A0F5CB
:100FC0001960016007F69811A1F694110A6007F6FE
:100FD0009812A2F69812136007F69813A3F68913D5
:100FE00022461A7007F69813A3F5196307F58C5279
:100FF00002F11402196810460BF021FB07F58C531F
:1010000003F114031846FFF7F5F803461A4607F5EF
:101010008C5303F114031344C84A1D4614460FCCE5
:1010200028606960AA60EB6007CC28616961AA61E9
:1010300007F5CD5303F108031B78002B2AD107F5E0
:101040008C5303F114031846FFF7D4F803461A46ED
:1010500007F58C5303F114031344B94A184611469B
:1010600061231A460BF0F3FA07F58C5303F11403CE
:101070001846FFF7BFF803461A4607F58C5303F1ED
:1010800014031344AF4A1846114663231A460BF063
:10109000DEFA29E007F58C5303F114031846FFF735
:1010A000A9F803461A4607F58C5303F114031344B9
:1010B000A54A1846114663231A460BF0C8FA07F5ED
:1010C0008C5303F114031846FFF794F803461A46AD
:1010D00007F58C5303F1140313449C4A1846114638
:1010E00061231A460BF0B3FA07F58C5303F114038E
:1010F0001846FFF77FF803461A4607F58C5303F1AD
:1011000014031344924A1D4614460FCC28606960AC
:10111000AA60EB6007CC28616961AA6123782B770C
:10112000002307F5CC5202F1140213605BE007F5CF
:10113000CC5303F114031B6807F69812A2F694121D
:10114000126813441B78012B1BD107F5CC5303F114
:1011500014031B681B0107F69812A2F69812126876
:10116000134407F5845000F11400009307F5CC53A5
:1011700003F114031B68774A4FF480710AF0E8FF0B
:101180001AE007F5CC5303F114031B681B0107F6A3
:101190009812A2F698121268134407F5845000F1D1
:1011A0001400009307F5CC5303F114031B686A4A3B
:1011B0004FF480710AF0CCFF07F5845202F114025B
:1011C00007F58C5303F11403114618460BF010F980
:1011D00007F5CC5303F114031B68013307F5CC5218
:1011E00002F11402136007F5CC5303F114031B68DA
:1011F000072B9CDD07F58C5303F114031846FEF70B
:10120000F9FF03461A4607F58C5303F11403134400
:10121000524A1D4614460FCC28606960AA60EB60F4
:1012200003CC286169612388A2782B831346AB76AF
:101230004B4B1B78002B08D007F58C5303F114039C
:10124000474918460BF0D4F812E007F58C5303F128
:1012500014031846FEF7CEFF03461A4607F58C53D3
:1012600003F1140313443F4A1068186092889A806F
:1012700007F58C5303F114031846FEF7BBFF034632
:101280001A4607F58C5303F114031344364A1D46DE
:1012900014460FCC28606960AA60EB6003CC28611B
:1012A00069612388A2782B831346AB7607F58C53AC
:1012B00003F1140307F1980004382C4A4FF48051CD
:1012C0000AF046FF07F19803043B1846FEF792FF29
:1012D000034607F118000438254A80210AF038FF38
:1012E00007F11803043B1846FEF784FF034699B242
:1012F00007F11803043B07F69812A2F6891210783A
:101300000A46194602F050F907F19803043B1846C3
:10131000FEF770FF034699B207F19803043B07F606
:101320009812A2F6891210780A46194602F03CF982
:1013300000BF07F5CC571837BD46B0BD04E4000820
:1013400020E4000884E40008E8E400084CE5000814
:10135000B0E50008D0E5000804E6000838E600081B
:10136000CC02002054E600085CE6000878E600089D
:101370007CE6000880B582B000AF03460A46FB71E8
:101380001346BB71FB79072B72D801A252F823F0E8
:10139000B1130008C9130008E1130008F91300088D
:1013A00011140008291400084114000859140008F9
:1013B000BB79002B14BF01230023DBB21A460121A5
:1013C000304803F029FF59E0BB79002B14BF0123FB
:1013D0000023DBB21A4602212A4803F01DFF4DE02C
:1013E000BB79002B14BF01230023DBB21A46042172
:1013F000244803F011FF41E0BB79002B14BF012307
:101400000023DBB21A4608211E4803F005FF35E031
:10141000BB79002B14BF01230023DBB21A46102135
:10142000184803F0F9FE29E0BB79002B14BF012313
:101430000023DBB21A462021124803F0EDFE1DE026
:10144000BB79002B14BF01230023DBB21A464021D5
:101450000C4803F0E1FE11E0BB79002B14BF01231F
:101460000023DBB21A468021064803F0D5FE05E0D2
:10147000FB79194604480AF0FBFD00BF00BF08379E
:10148000BD4680BD00040240D0E6000880B500AF34
:10149000012003F023F929480AF052FE012003F04D
:1014A0001DF927480AF04CFE012003F017F92548E2
:1014B0000AF046FE012003F011F923480AF040FE2D
:1014C000012003F00BF921480AF03AFE012003F055
:1014D00005F91F480AF034FE012003F0FFF81D480B
:1014E0000AF02EFE012003F0F9F81B480AF028FE4E
:1014F000012003F0F3F819480AF022FE012003F05E
:10150000EDF817480AF01CFE012003F0E7F8154833
:101510000AF016FE012003F0E1F813480AF010FE6D
:10152000012003F0DBF811480AF00AFE012003F065
:10153000D5F80F480AF004FE00BF80BDECE60008B5
:1015400004E7000828E7000858E7000880E70008DB
:10155000B0E70008DCE7000808E8000834E8000805
:1015600064E8000898E80008CCE80008F8E80008FB
:101570001CE9000880B58AB002AF7860396007F1D5
:101580000803191D07F1080207F108030C33019342
:1015900007F10803083300930B461A4978680AF0EC
:1015A0000BFEB861BB69042B01D0002326E00023A9
:1015B000FB611FE0FB699B0020333B4453F8183C60
:1015C000002B07DBFB699B0020333B4453F8183C9E
:1015D000FF2B01DD002311E0FB699B0020333B441E
:1015E00053F8181CFB693A681344CAB21A70FB69B5
:1015F0000133FB61FB69032BDCDD01231846203737
:10160000BD4680BD4CE9000880B58EB004AF78605F
:10161000396007F10803191D07F1080207F10803F3
:101620001433039307F108031033029307F10803FF
:101630000C33019307F10803083300930B46294943
:1016400078680AF0B9FD38623B6A062B1FD007F1B3
:101650000803191D07F1080207F108031433039367
:1016600007F108031033029307F108030C330193C9
:1016700007F10803083300930B461B4978680AF00A
:101680009BFD38623B6A062B01D0002326E0002335
:101690007B621FE07B6A9B0028333B4453F8203C6D
:1016A000002B07DB7B6A9B0028333B4453F8203C2C
:1016B000FF2B01DD002311E07B6A9B0028333B44B4
:1016C00053F8201C7B6A3A681344CAB21A707B6ACA
:1016D00001337B627B6A052BDCDD0123184628374A
:1016E000BD4680BD58E900086CE9000880B586B0A9
:1016F00002AF78607B68002B03D113480AF020FD0D
:101700001EE007F10C0319467868FFF733FF034624
:10171000002B12D0FB680D4AC2F8063000F0FEF82C
:101720003B7B19467B7B1A46BB7B1846FB7B0093B1
:10173000034607480AF09CFC02E006480AF000FD58
:101740001037BD4680BD00BF80E90008C4000020FE
:101750009CE90008C0E90008B0B588B004AF786023
:101760007B68002B03D118480AF0EAFC28E007F157
:10177000080319467868FFF747FF0346002B1CD083
:10178000124B07F1080292E8030018600433198035
:1017900000F0C4F83B7A18467B7A1C46BB7A1D469B
:1017A000FB7A3A7B797B0291019200932B46224689
:1017B000014607480AF05CFC02E006480AF0C0FC5B
:1017C0001037BD46B0BD00BFECE90008C4000020E2
:1017D00010EA000844EA000880B586B002AF7860DD
:1017E0007B68002B03D113480AF0AAFC1EE007F126
:1017F0000C0319467868FFF7BDFE0346002B12D094
:10180000FB680D4AC2F80A3000F088F83B7B1946A5
:101810007B7B1A46BB7B1846FB7B0093034607483D
:101820000AF026FC02E006480AF08AFC1037BD46A2
:1018300080BD00BF70EA0008C400002090EA0008E4
:10184000B4EA000880B586B002AF78607B68002BF0
:1018500003D113480AF074FC1EE007F10C0319468B
:101860007868FFF787FE0346002B12D0FB680D4A0D
:10187000C2F80E3000F052F83B7B19467B7B1A46CB
:10188000BB7B1846FB7B0093034607480AF0F0FB3E
:1018900002E006480AF054FC1037BD4680BD00BF88
:1018A000E0EA0008C400002000EB000820EB00087C
:1018B00080B586B002AF78607B68002B03D11348F7
:1018C0000AF03EFC1EE007F10C0319467868FFF7AA
:1018D00051FE0346002B12D0FB680D4AC2F81230AD
:1018E00000F01CF83B7B19467B7B1A46BB7B1846F5
:1018F000FB7B0093034607480AF0BAFB02E0064868
:101900000AF01EFC1037BD4680BD00BF48EB000842
:10191000C400002064EB000880EB000880B500AF35
:10192000044802F0FFFD04480AF00AFC00F006F843
:1019300000BF80BDC4000020A4EB0008B0B584B097
:1019400004AF38480AF0FCFB374B1B781846364B7F
:101950005B781C46344B9B781D46334BDB781A462C
:10196000314B1B791946304B5B7902930191009200
:101970002B46224601462D480AF07AFB2A4B9B79DA
:101980001946294BDB791A46274B1B7A1846264BFA
:101990005B7A0093034626480AF06AFB224B9B7A47
:1019A0001946214BDB7A1A461F4B1B7B18461E4BF0
:1019B0005B7B009303461F480AF05AFB1A4B9B7B44
:1019C0001946194BDB7B1A46174B1B7C1846164BE6
:1019D0005B7C0093034618480AF04AFB124B9B7C41
:1019E0001946114BDB7C1A460F4B1B7D18460E4BDC
:1019F0005B7D0093034611480AF03AFB0A4B9B7D3E
:101A0000022B01D10E4B00E00E4B19460E480AF096
:101A10002FFB0E4A0E490F480AF02AFB00BFBD46B5
:101A2000B0BD00BFC0EB0008C4000020E0EB000820
:101A300008EC00081CEC000834EC00084CEC000832
:101A400060EC000868EC000870EC00082000002042
:101A5000000000207CEC000880B586B000AF786004
:101A60006A4978680AF006FD78617B69002B03D12A
:101A700067480AF065FBC6E066497869FEF7B0FB87
:101A80000346002B08D1614900200AF0F3FC03460D
:101A90001846FFF72BFEB6E05F497869FEF7A0FB1A
:101AA0000346002B08D1594900200AF0E3FC034605
:101AB0001846FFF751FEA6E058497869FEF790FBFB
:101AC0000346002B06D056497869FEF789FB03468A
:101AD000002B08D14D4900200AF0CCFC03461846E3
:101AE000FFF77AFE8FE04F497869FEF779FB0346EE
:101AF000002B06D04C497869FEF772FB0346002B99
:101B000008D1424900200AF0B5FC03461846FFF709
:101B100099FE78E045497869FEF762FB0346002BA1
:101B200008D13A4900200AF0A5FC03461846FFF701
:101B3000BFFE68E03E497869FEF752FB0346002B82
:101B40002BD13C4900200AF095FCF860FB68002B83
:101B50001FD0F86800F062F9FB681B78002B05D0F5
:101B6000F868FEF747FB03461F2B03D932480AF0FB
:101B7000E7FA48E01F22F96830480AF067FC2F4B6B
:101B80000022DA77FEF7C6FE2C492D480AF070FADB
:101B900039E02C480AF0D4FA35E02B497869FEF791
:101BA0001FFB0346002B27D1224900200AF062FCCC
:101BB00038613B69002B1BD0386900F02FF9386978
:101BC000FEF718FB03461F2B03D920480AF0B8FA8A
:101BD00019E01F2239691E480AF038FC1C4B00220C
:101BE000DA77FEF797FE1A491A480AF041FA0AE036
:101BF00019480AF0A5FA06E0796918480AF038FA97
:101C000017480AF09DFA1837BD4680BD94EC0008CD
:101C100098EC0008C8EC0008CCEC0008D0EC0008F8
:101C2000D8EC0008DCEC0008E4EC0008E8EC000864
:101C3000ECEC0008F4EC0008F8EC000800000020D0
:101C400018ED000834ED000850ED000858ED0008CC
:101C50002000002078ED000894ED0008B0ED0008A9
:101C6000C8ED0008B0B586B004AF78605749786811
:101C7000FEF7B6FA0346002B10D1554B9B79194657
:101C8000534BDB791A46524B1B7A1846504B5B7A02
:101C9000009303464F480AF0EBF993E04E49786809
:101CA000FEF79EFA0346002B1AD1494B1B781846C3
:101CB000474B5B781C46464B9B781D46444BDB7874
:101CC0001A46434B1B791946414B5B7902930191AC
:101CD00000922B462246014640480AF0C9F971E0BD
:101CE0003F497868FEF77CFA0346002B06D03D4951
:101CF0007868FEF775FA0346002B10D1344B9B7AB7
:101D00001946334BDB7A1A46314B1B7B1846304B56
:101D10005B7B0093034634480AF0AAF952E033494A
:101D20007868FEF75DFA0346002B06D030497868E4
:101D3000FEF756FA0346002B10D1254B9B7B194624
:101D4000234BDB7B1A46224B1B7C1846204B5B7CCB
:101D50000093034627480AF08BF933E02649786858
:101D6000FEF73EFA0346002B10D1194B9B7C194617
:101D7000174BDB7C1A46164B1B7D1846144B5B7DBC
:101D8000009303461D480AF073F91BE01C4978686C
:101D9000FEF726FA0346002B04D11A491A480AF026
:101DA00067F90FE019497868FEF71AFA0346002B25
:101DB00004D1174917480AF05BF903E016480AF006
:101DC000BFF9FFE700BF0837BD46B0BDC8EC00084B
:101DD000C400002008EC0008CCEC0008E0EB000890
:101DE000D0EC0008D8EC00081CEC0008DCEC000883
:101DF000E4EC000834EC0008E8EC00084CEC0008C7
:101E0000ECEC000800000020F4ED000850ED0008A4
:101E10002000002004EE000814EE000880B584B015
:101E200000AF786002E07B6801337B607B681B78E1
:101E30000133174A13441B7803F00803002BF2D137
:101E40007B681B78002B1ED07868FEF7D3F9034619
:101E5000013B7A681344FB6002E0FB68013BFB60D6
:101E6000FA687B689A4209D9FB681B780133084AF3
:101E700013441B7803F00803002BEED1FB680133F9
:101E800000221A7000E000BF1037BD4680BD00BFC1
:101E9000D8F5000880B584B000AF7860396007F1EC
:101EA00008030A22194678680AF016F8F860BB6839
:101EB0007A689A4203D0BB681B78002B01D00023BC
:101EC00003E03B68FA681A60012318461037BD46E4
:101ED00080BD000080B500AFFEF736FE02480AF074
:101EE0002FF900BF80BD00BF3CEE000880B500AFF9
:101EF000FEF72AFF0346002B04D0FFF70FFDFFF784
:101F00001DFD02E002480AF01BF900BF80BD00BFC2
:101F100060EE000880B500AFFEF7B8FFFFF7FEFCEB
:101F2000FEF712FE02480AF00BF900BF80BD00BFA9
:101F300078EE000880B582B000AF78607868FFF76F
:101F40006DFF79684B480AF093F87B681B78002B8B
:101F500000F08B8048497868FEF742F90346002B71
:101F600002D1FFF793FA81E00422444978680AF02D
:101F70005BFA0346002B05D17B6804331846FFF754
:101F80006BFD73E00A223E4978680AF04DFA034679
:101F9000002B05D17B680A33184600F079F965E01B
:101FA0000422384978680AF03FFA0346002B05D12D
:101FB0007B6804331846FFF755FE57E032497868CE
:101FC000FEF70EF90346002B06D030497868FEF77D
:101FD00007F90346002B02D1FFF7B0FC46E02C497D
:101FE0007868FEF7FDF80346002B02D100F0DCF81C
:101FF0003CE028497868FEF7F3F80346002B02D14D
:10200000FFF768FF32E024497868FEF7E9F80346F5
:10201000002B02D1FFF76AFF28E020497868FEF71D
:10202000DFF80346002B06D01D497868FEF7D8F884
:102030000346002B02D1FFF76DFF17E019497868BE
:10204000FEF7CEF80346002B07D117480AF078F8C0
:10205000642002F043FBFEF72DFB796813480AF079
:1020600007F813480AF06CF800E000BF0837BD46D7
:1020700080BD00BFACEE0008B8EE0008C0EE00085E
:10208000C8EE0008D4EE0008DCEE0008E4EE00081C
:10209000ECEE0008F4EE0008FCEE000804EF000887
:1020A0000CEF000814EF00081CEF000834EF0008E4
:1020B0004CEF000880B584B000AF78600B467B80A1
:1020C00072B600BF124B1B889BB27A889A4203D922
:1020D0000F4B1B889BB200E07B88FB81FB89002BA8
:1020E00005D0FB891A460B4978680AF0B0FA084B0C
:1020F00000221A80084B00221A70084B00221A7026
:1021000062B600BFFB8918461037BD4680BD00BFD0
:10211000D80E0020D8060020DA0E0020DB0E0020AA
:1021200080B5ADF6080D00AF1A4B1B78DBB2002B63
:102130001DD03B1D4FF400611846FFF7BBFF03465F
:10214000A7F80638B7F80638002B10D0B7F80638CD
:1021500007F60802A2F604020021D1543B1D1946DD
:102160000D4809F085FF3B1D1846FFF7E3FE0B4BBA
:102170001B78DBB2002B08D0094809F0E1FF074BC0
:1021800000221A70074B00221A8000BF07F60807CA
:10219000BD4680BDDA0E002070EF0008DB0E002087
:1021A00080EF0008D80E002080B582B000AF104844
:1021B00009F0C6FF00237B6011E0012002F08EFAD7
:1021C0007B681B010B4A13441A4679680A4809F0D8
:1021D0004FFF012002F082FA7B6801337B607B684D
:1021E000072BEADD00BF00BF0837BD4680BD00BF3A
:1021F000C0EF000840000020D8EF000880B582B092
:1022000000AF786039607B68002B02DB7B68072BAE
:1022100003DD1A4809F094FF2DE03B68002B03D042
:102220003B681B78002B03D1154809F089FF22E099
:102230003868FDF7DFFF03460F2B03D9114809F07B
:102240007FFF18E07B681B010F4A13440F22396897
:1022500018460AF0FBF80C4A7B681B0113440F3345
:1022600000221A707B681B01074A13441A467968DA
:10227000064809F0FDFE0837BD4680BDE8EF0008BE
:102280000CF0000824F000084000002048F000088E
:1022900080B586B000AF78601A4978680AF0EAF82D
:1022A0007861194900200AF0E5F838617B69002B54
:1022B00002D03B69002B03D1144809F041FF1DE017
:1022C0003869FFF7ABFD3B691B78002B03D1104841
:1022D00009F036FF12E007F10C0319467869FFF7A1
:1022E000D9FD0346002B04D179690A4809F0C0FEE4
:1022F00004E0FB6839691846FFF780FF1837BD46D0
:1023000080BD00BF94EC0008F4EC000864F0000805
:102310000CF0000884F0000880B584B000AF0346DC
:10232000FB71FB799B000133DB0003F5407318461A
:1023300001F09EFC0346FB73FB7B153B082B8CBF17
:1023400001220022D2B2002A31D1012202FA03F383
:1023500040F26B121A40002A14BF01220022D2B2AE
:10236000002A1FD103F08002002A14BF012200229C
:10237000D2B2002A0DD103F00403002B14BF0123B5
:102380000023DBB2002B12D0FB79184601F096F83F
:1023900018E0FB79184601F091F8FB79184600F037
:1023A000C5FF0FE0FB79184600F0C0FF0AE0FB7B99
:1023B000002B06D0FB7B132B03D0FB79184600F0D3
:1023C000B5FF00BFFB799B000133DB0003F54073D1
:1023D000184601F04DFC0346002B03D0FB7918464C
:1023E00000F0A4FF00BF1037BD4680BD80B582B0AD
:1023F00000AF4FF4427001F03BFC0346FB71FB79E8
:10240000172B02D0FB791C2B18D102F05BF9386036
:102410000C4B1B68002B11D00A4B1B683A68D31A6F
:1024200042F21072934209D90021074809F020FEB8
:102430000020FFF771FF034B00221A6000BF08372E
:10244000BD4680BD80020020A0F0000880B582B0AB
:1024500000AF002208211F4802F0DEFE022002F039
:102460003DF9012208211B4802F0D6FE022002F0AD
:1024700035F91949194801F0FFFE1949194801F0C9
:1024800021FF1949194801F049FF194A3B4692E8D2
:10249000030083E803003A463B461146184601F024
:1024A000B5FF144802F03EF80020FFF735FF002387
:1024B00050220121002000F025FE0346002B02D10E
:1024C000002000F0A1FF0C4809F03AFE00BF0837D9
:1024D000BD4680BD00000240710A0008590A00088C
:1024E000EB0A0008D10A0008AD0A0008890A0008B2
:1024F000FCF00008C4000020D4F0000880B582B0D1
:1025000000AF02F0DFF87860694B1B687A68D31A75
:1025100042F20F72934240F2C7804FF4645001F0D0
:10252000A7FB0346FB70FB78042B0AD0FB78194607
:10253000604809F09DFDFFF789FF5D4A7B681360E5
:10254000B3E04FF4427001F093FB0346BB70BB78DD
:102550001C2B75D801A252F823F000BF9726000863
:1025600041260008412600084126000841260008AF
:10257000412600084126000841260008412600089F
:10258000412600084126000841260008412600088F
:10259000412600084126000841260008412600087F
:1025A00041260008412600089726000897260008C3
:1025B0004126000841260008D125000841260008D0
:1025C000412600084126000841260008D1250008C0
:1025D000394B1B68002B60D0374B1B687A68D31AC5
:1025E00043F69822934258D9BB781946334809F0EC
:1025F0003FFD0020FFF790FE2F4B00221A600A20BB
:1026000002F06CF8002350220121002000F07AFD36
:102610000346002B03D02A4809F092FD3DE000203C
:1026200000F0F2FE0346012B06D0264809F088FD93
:10263000002000F07BFE30E0234809F081FD2CE013
:10264000BB781946214809F013FD0020FFF764FE0E
:10265000194B00221A60002000F068FE0A2002F0E8
:102660003DF8002350220121002000F04BFD0346DD
:10267000002B0CD1002000F0C7FE0346012B0ED02A
:10268000134809F05DFD002000F050FE07E01148FE
:1026900009F056FD03E000BF02E000BF00E000BF0C
:1026A000034A7B68136000E000BF0837BD4680BD69
:1026B000A803002004F10008800200202CF100088B
:1026C00064F100087CF1000890F10008ACF100080A
:1026D000E8F1000808F20008B0B5ADF58C6D02AF66
:1026E00001F08AFF00F0A8FB00F080FC00F012FC73
:1026F00000F046FC08F014FEC348FDF7F1FFC248A5
:10270000FEF70EF84FF4FA6001F0E8FFFEF71CFB4D
:102710000346002B05D1FEF7B9FBBC4809F010FDBC
:1027200002E0BB4809F00CFDFFF7F8F8FEF7F2F8FD
:10273000B84809F005FD00220821B74802F06CFDF9
:102740000A2001F0CBFF01220821B34802F064FD0A
:102750004FF4FA6001F0C2FFB049B14801F08CFDBE
:10276000B049B14801F0AEFDB049B14801F0D6FD25
:10277000B04A07F5856392E8030083E8030007F594
:10278000856207F585631146184601F03FFEAA48A9
:1027900001F0C8FEA84B9B791946A74BDB791A4676
:1027A000A54B1B7A1846A44B5B7A00930346A348BB
:1027B00009F05EFC002350220121002000F0A2FC61
:1027C0000346002B07D09E4809F0BAFC4FF47A70FC
:1027D00001F084FFFAE7002000F016FE0346012B0B
:1027E00007D0984809F0ACFC4FF47A7001F076FFFE
:1027F000FAE7954809F0A4FCFFF792FCFFF77EFE8C
:10280000FFF7F4FD4FF4427001F032FA034687F807
:10281000473401F057FFC7F8400497F84734172BA7
:1028200003D097F847341C2B16D1884B1B68002B1C
:1028300012D0864B1B68D7F84024D31A42F210728C
:10284000934209D90021824809F012FC002000F0CF
:102850006DFD7E4B00221A6097F847341C2B00F266
:10286000B18201A252F823F07D2D0008C52D000889
:10287000C52D0008C52D0008C52D0008C52D000870
:10288000C52D0008C52D0008C52D0008C52D000860
:10289000C52D0008C52D0008C52D0008C52D000850
:1028A000C52D0008C52D0008C52D0008C52D000840
:1028B000C52D0008C52D0008C52D0008C52D000830
:1028C000C52D0008DD280008C52D0008C52D00080D
:1028D000C52D0008C52D00086F2D00085B4B1B6837
:1028E000002B03D1594AD7F84034136007F58B63A6
:1028F000A3F58B6300221A6004334FF47F7200212A
:10290000184609F06DFD0023A7F8563401F0DAFEF1
:10291000C7F850044EE0B7F856343A46D118B7F825
:102920005634C3F57F7303339BB21A46002000F080
:1029300033FF0346A7F83E34B7F93E34002B1CDDC5
:10294000B7F83E24B7F856341344A7F8563401F0CC
:10295000B9FEC7F85004B7F85634032B2AD9B7F894
:102960005634043B3A46134404223A49184609F0C7
:1029700027FD0346002B1DD122E0B7F93E34002B82
:1029800011D101F09FFE0246D7F85034D31A40F619
:10299000B832934203D9304809F0D2FB10E001204D
:1029A00001F09CFE06E0B7F93E3419462B4809F0C9
:1029B0005FFB05E0B7F8563440F2FE329342AAD9E5
:1029C000B7F85634002B00F0AA81B7F8563407F553
:1029D0008B62A2F58B620021D1543B4620491846F8
:1029E00009F0A4FD0346002B6CD13B461846FDF7C9
:1029F000BBFF0346002B65D10020FEF703F801F072
:102A000061FEC7F8380442E00048014024F20008A3
:102A10002CE300083CF2000800000240710A0008A4
:102A2000590A0008EB0A0008D10A0008AD0A00089C
:102A3000890A0008FCF00008C400002050F20008D9
:102A400078F2000894F20008A4F200088002002046
:102A5000CCF20008FCF2000804F3000814F30008AC
:102A600028F3000801F02EFE0246D7F83834D31AB6
:102A7000B3F5FA7F00F279814FF4427001F0F8F873
:102A80000346172B40F07181012001F027FE42F22E
:102A9000082001F0EDF803461C0242F2083001F074
:102AA000E7F803461C4442F2084001F0E1F803460F
:102AB0001D0242F2085001F0DBF803462B449C4211
:102AC000D0D152E13B46C349184609F02FFD0346D9
:102AD000002B0BD0C04B00221A70C04A8021C04886
:102AE00009F036FBBF4809F02BFB12E03B46BE491C
:102AF000184609F01BFD0346002B0AD0B64B0122F5
:102B00001A70BA4A8021B64809F022FBB84809F089
:102B100017FB0023C7F84C34BDE007F21440D7F888
:102B20004C34B44A142109F013FB07F58060D7F840
:102B30004C34B14A142109F00BFB07F214423B4616
:102B40001146184609F0F2FC0346002B7BD0A24B3D
:102B50001B78012B39D10023C7F8483417E0D7F888
:102B60004824D7F84C349A420CD0A44AD7F84834B9
:102B7000134400221A70D7F84834DBB200211846FB
:102B8000FEF7F8FBD7F848340133C7F84834D7F8D4
:102B90004834072BE3DD994AD7F84C34134401221B
:102BA0001A70D7F84C34DBB201211846FEF7E2FB6D
:102BB000D7F84C34924A8021894809F0C9FAD7F8ED
:102BC0004C14904809F054FA60E08C4AD7F84C3421
:102BD00013441B78002B0CBF01230023DBB21946E2
:102BE000864AD7F84C3413440A461A70D7F84C3446
:102BF000DAB28249D7F84C340B441B781946104698
:102C0000FEF7B8FB7D4AD7F84C3413441B78002BF1
:102C10000CD0D7F84C347C4A8021714809F098FADE
:102C2000D7F84C14794809F023FA2FE0D7F84C3440
:102C3000774A80216A4809F08BFAD7F84C14754816
:102C400009F016FA22E007F580623B461146184665
:102C500009F06CFC0346002B18D0684AD7F84C34B6
:102C6000134400221A70D7F84C34DBB20021184606
:102C7000FEF780FBD7F84C34674A8021584809F0AA
:102C800067FAD7F84C14654809F0F2F9D7F84C34D4
:102C90000133C7F84C34D7F84C34072B7FF73DAFDE
:102CA0005F4B19684C4B1B7800935E4B534A0020D6
:102CB000FEF77EF90020FFF72FFB01F003FDC7F8B8
:102CC000340412E001F0FEFC0246D7F83434D31A83
:102CD000B3F57A7F23D84FF4427000F0C9FF034662
:102CE000172B1CD1012001F0F9FC42F2082000F062
:102CF000BFFF03461C0242F2083000F0B9FF034652
:102D00001C4442F2084000F0B3FF03461D0242F2A9
:102D1000085000F0ADFF03462B449C42D2D1002066
:102D200000F0CCFB404B00221A6001F0CBFCC7F84E
:102D3000300412E001F0C6FC0246D7F83034D31A52
:102D4000B3F57A7F06D9394809F0FAF9002000F086
:102D5000EDFA0BE0012001F0C1FC4FF4427000F0ED
:102D600087FF0346002BE5D100E000BF2DE00020E7
:102D700000F0A4FB2C4B00221A6026E0002000F09B
:102D8000D5FA012001F0AAFC0023502201210020E5
:102D900000F0B8F90346002B0CD1002000F034FB02
:102DA0000346012B10D0224809F0CAF9002000F098
:102DB000BDFA09E01F4809F0C3F94FF47A7001F039
:102DC0008DFC01E000BF00E000BF012001F086FCA7
:102DD00012E500BF3CF300084C03002050F300084C
:102DE000CC02002068F3000880F3000894F3000888
:102DF000ACF30008C4F30008D4F30008C4020020B8
:102E0000E4F3000804F4000828F4000848F400087B
:102E10006CF4000890F40008B4F40008C8F400084A
:102E2000C00000204000002080020020E0F40008E4
:102E300008F5000808F2000880B594B000AF07F16B
:102E4000200330220021184609F0CAFA07F10C03CA
:102E500000221A605A609A60DA601A610023BB602F
:102E60002A4B1B6C294A43F080531364274B1B6C7D
:102E700003F08053BB60BB6800237B60244B1B685E
:102E800023F44043224A43F400431360204B1B6861
:102E900003F440437B607B6801233B624FF4803343
:102EA0007B620223BB634FF48003FB6319233B6403
:102EB0004FF4A8737B640423BB640723FB6407F10E
:102EC0002003184603F014FC0346002B01D000F049
:102ED00013F90F23FB6002233B6100237B614FF456
:102EE0008053BB610023FB6107F10C0302211846EC
:102EF00003F076FE0346002B01D000F0FDF803F04E
:102F000055FF00BF5037BD4680BD00BF00380240AE
:102F10000070004080B500AF174B184A1A60164B7E
:102F20004FF482725A60144B00229A60124B0022B6
:102F3000DA60114B00221A610F4B00225A610E4BCE
:102F40004FF400729A610C4B2022DA610A4B002286
:102F50001A62094B00225A62074B00229A62064B02
:102F60000A22DA62044804F01AF80346002B01D062
:102F700000F0C2F800BF80BD5003002000300140C7
:102F800080B586B000AF3B1D00221A605A609A607F
:102F9000DA601A614FF48020FDF7D2FBFDF700FBE9
:102FA0000346002200211846FDF750FB0346194650
:102FB0001A20FDF721FB1A20FDF700FB4FF6FF73E7
:102FC000BB800023BB6040F2E733FB6000233B6122
:102FD0003B1D1946044804F0EDFD0348FDF790FB46
:102FE00000BF1837BD4680BD0048014080B58AB09B
:102FF00000AF07F1140300221A605A609A60DA6089
:103000001A6100233B61384B1B6B374A43F00403C2
:103010001363354B1B6B03F004033B613B690023D7
:10302000FB60314B1B6B304A43F0800313632E4B24
:103030001B6B03F08003FB60FB680023BB602A4B23
:103040001B6B294A43F001031363274B1B6B03F0EF
:103050000103BB60BB6800237B60234B1B6B224AD0
:1030600043F002031363204B1B6B03F002037B60EE
:103070007B6800224FF400511C4802F0CDF800227A
:1030800018211B4802F0C8F84FF400537B6101235C
:10309000BB610023FB6100233B6207F11403194667
:1030A000124801F035FFFF237B610123BB61002340
:1030B000FB6100233B6207F1140319460D4801F040
:1030C00027FF18237B610123BB610023FB610023E1
:1030D0003B6207F114031946054801F019FF00BFD0
:1030E0002837BD4680BD00BF0038024000080240BE
:1030F000000002400004024080B400AF72B600BF7E
:1031000000BFFDE790B585B000AF04460846114604
:103110001A462346FB710346BB710B46BB80134620
:10312000FB70FB79082B02D94FF0FF33F0E0BB793D
:10313000012B05D0002B11DD023B022B0ED811E034
:1031400007F10C03042219464FF4706000F02AFEC8
:10315000FB68002B05D16FF00203D9E06FF0040388
:10316000D6E000BFFB7803F00403002B02D06FF021
:103170000503CDE0FB78002B28D0BB79012B02D0D2
:10318000022B08D022E0FB7803F02103002B1AD198
:103190006FF00503BCE0FB7803F02003002B06D0A2
:1031A00097F90330002B02DB6FF00503B0E0FB78EA
:1031B00003F01003002B08D097F90330002B04DB39
:1031C0006FF00503A4E000BF00E000BFFB791846E4
:1031D00000F0ACF8FB799B000133DB00184697F94F
:1031E000033023F00F035AB297F9063013435BB252
:1031F000DBB2194600F088FDBB88002B10D1464B8E
:103200001B885A1C91B2444A1180BB80424B1B88D8
:103210004FF6F072934203D13F4B4FF440421A8075
:10322000FB799B000133DB0003F580631A46BB8802
:103230001B0A9BB2DBB21946104600F065FDFB7914
:103240009B000133DB0003F5A0631A46BB88DBB2A9
:103250001946104600F058FDFB799B000133DB0056
:1032600003F580730121184600F04EFD00BFFB7985
:103270009B000133DB0003F58073184600F0F8FC77
:103280000346002BF3D1FB79012202FA03F31BB2B0
:10329000DB431AB2214B1B881BB213401BB29AB2FC
:1032A0001E4B1A80FB7803F00102FB7902FA03F34C
:1032B0001AB21A4B1B881BB213431BB29AB2174B9C
:1032C0001A80FB79012202FA03F31BB2DB431AB224
:1032D000134B1B881BB213401BB29AB2104B1A80BF
:1032E000FB79104A002122F81310FB790E4A0021C5
:1032F000D15400BFFB799B000133DB0003F5407321
:10330000184600F0B5FC0346002BF3D097F90730C0
:1033100018461437BD4690BDDC000020AC030020E9
:10332000AE030020B0030020C003002080B582B0AF
:1033300000AF0346FB71FB79082B02D94FF0FF3336
:1033400055E0FB799B000133DB0003F5807310210E
:10335000184600F0D9FC00BFFB799B000133DB006D
:1033600003F58073184600F083FC0346002BF3D16D
:10337000FB799B000133DB0003F500731F21184626
:1033800000F0C2FCFB79012202FA03F31BB2DB431B
:103390001AB2194B1B881BB213401BB29AB2164BC0
:1033A0001A80FB79012202FA03F31BB2DB431AB243
:1033B000124B1B881BB213401BB29AB20F4B1A80E0
:1033C000FB790F4A002122F81310FB790D4A0021E6
:1033D000D15400BFFB799B000133DB0003F5407340
:1033E000184600F045FC0346002BF3D10123184694
:1033F0000837BD4680BD00BFAC030020AE030020EF
:10340000B0030020C003002080B582B000AF0346A7
:10341000FB71FB79082B02D94FF0FF3349E0FB79B0
:103420009B000133DB00184600F022FC034603F04A
:103430000F03012B02D06FF004033AE0FB799B00ED
:103440000133DB0003F54073184600F011FC03461E
:10345000132B02D06FF002032BE0FB799B000133AA
:10346000DB0003F580730221184600F04DFC00BF1D
:10347000FB799B000133DB0003F58073184600F0F5
:10348000F7FB0346002BF3D106E0FB791846FFF764
:103490004DFF6FF003030CE0FB799B000133DB0071
:1034A00003F54073184600F0E3FB0346142BECD100
:1034B000012318460837BD4680BD000080B582B0A4
:1034C00000AF0346FB71FB79082B02D94FF0FF33A5
:1034D00062E0FB799B000133DB00184600F0C8FB7B
:1034E000034603F00F03012B02D06FF0040353E0F7
:1034F000FB799B000133DB0003F58073082118463C
:1035000000F002FC00BFFB799B000133DB0003F5F8
:103510008073184600F0ACFB0346002BF3D1FB7917
:10352000012202FA03F31BB2DB431AB21C4B1B88C5
:103530001BB213401BB29AB2194B1A80194B1B884D
:103540001A46FB7942FA03F303F00103002B16D06D
:10355000002321E0FB799B000133DB0003F50073BE
:10356000184600F085FB034603F00803002B06D045
:10357000FB791846FFF7DAFE6FF00C030CE0FB79DD
:103580009B000133DB0003F54073184600F070FB2D
:103590000346002BDED1012318460837BD4680BD07
:1035A000AE030020AC03002080B584B000AF03461A
:1035B0003960FB711346BB800023FB730023BB8182
:1035C000FB79082B02D94FF0FF33DDE0FB799B003C
:1035D0000133DB00184600F04BFB034603F00F03FA
:1035E000012B02D06FF00403CEE0BB88002B02D188
:1035F0006FF00D03C8E0FB799B000133DB0003F59E
:103600004073184600F034FB0346FB73FB7B172B1B
:1036100005D0FB7B1C2B02D06FF00603B4E05C4BA3
:103620001B881A46FB7942FA03F303F00103002BCF
:1036300039D0FB799B000133DB0003F5007318469A
:1036400000F016FB034603F01F03FB73FB7B03F044
:103650001003002B19D0FB799B000133DB0003F52D
:1036600000731021184600F04FFBFB79012202FA8B
:1036700003F31BB2DB431AB2454B1B881BB213404A
:103680001BB29AB2424B1A800DE0FB7B03F0080399
:10369000002B06D0FB791846FFF748FE6FF00C03AD
:1036A00072E0002370E0FB799B000133DB0003F53F
:1036B000F853184600F0DCFA03469B02BB81BA8837
:1036C000BB899A4201D9BB89BB80FB79184600F0BF
:1036D00029FC0346BB81FB799B000133DB0003F52A
:1036E0004073184600F0C4FA0346FB73FB7B172BAC
:1036F00009D0FB7B1C2B06D0FB791846FFF716FE82
:103700006FF0060340E0234B1B881A46FB7942FA10
:1037100003F303F00103002B05D0BA88BB899A425A
:1037200001D9002330E0BA88BB899A4200D9CCE79E
:1037300000BFBA88FB793968184600F085FCFB7930
:103740009B000133DB0003F580732021184600F055
:10375000DBFA00BFFB799B000133DB0003F58073CC
:10376000184600F085FA0346002BF3D1FB790122BD
:1037700002FA03F31AB2064B1B881BB213431BB2A7
:103780009AB2034B1A80BB8818461037BD4680BDDD
:10379000AE030020AC03002090B585B000AF034617
:1037A0003960FB711346BB800023FB730023BB8190
:1037B000FB79082B02D94FF0FF339BE0FB799B008C
:1037C0000133DB00184600F053FA034603F00F0301
:1037D000012B02D06FF004038CE0BB88002B02D1D8
:1037E0006FF00D0386E0FB799B000133DB0003F5EE
:1037F000F053184600F03CFA03469B02BB81BA899D
:10380000BB889A4201D2BB89BB80FB79184600F085
:10381000D2FB0346BB81FB799B000133DB0003F540
:103820004073184600F024FA0346FB73FB7B172B0A
:1038300026D0FB7B1C2B1CD1BB89002B33D1FB7901
:10384000184600F06FFB03461C46FB799B000133D2
:10385000DB0003F5F853184600F00AFA03469B0212
:103860009C420DD1FB791846FFF760FD6FF006030F
:1038700040E0FB791846FFF759FD6FF0060339E089
:103880001E4B1B881A46FB7942FA03F303F001032F
:10389000002B04D0BB89002B01D100232AE0BB8977
:1038A000002B02D1B1E700BF00E000BFBA89BB889E
:1038B0009A4201D2BB89BB80BA88FB793968184625
:1038C00000F01CFCFB799B000133DB0003F58073E7
:1038D0004021184600F018FA00BFFB799B00013325
:1038E000DB0003F58073184600F0C2F90346002B95
:1038F000F3D1BB8818461437BD4690BDAC030020F9
:1039000080B483B000AF00237B60104B5B6C0F4A28
:1039100043F4804353640D4B5B6C03F480437B6042
:103920007B6800233B60094B1B6C084A43F08053C3
:103930001364064B1B6C03F080533B603B6800BF75
:103940000C37BD465DF8047B704700BF003802406D
:1039500080B58AB000AF786007F1140300221A60C6
:103960005A609A60DA601A617B681B68194A934250
:103970002BD100233B61184B5B6C174A43F48053F7
:103980005364154B5B6C03F480533B613B6900232C
:10399000FB60114B1B6B104A43F0010313630E4B8A
:1039A0001B6B03F00103FB60FB68E0237B610223D8
:1039B000BB610023FB6103233B6205237B6207F1AC
:1039C00014031946054801F0A3FA00BF2837BD4685
:1039D00080BD00BF003001400038024000000240BE
:1039E00080B483B000AF78607B686FF001021A6129
:1039F00000BF0C37BD465DF8047B704780B483B0D0
:103A000000AF78607B681B6903F00103012B01D1D3
:103A1000012300E0002318460C37BD465DF8047B07
:103A2000704780B485B000AF786039607B685B69AF
:103A3000FB60FA683B6813401A04FB68D9433B6893
:103A40000B401A437B689A6100BF1437BD465DF88E
:103A5000047B704780B500AF03F086FA00BFFDE736
:103A600080B400AF00BFFDE780B400AF00BFFDE74A
:103A700080B400AF00BFFDE780B400AF00BFFDE73A
:103A800080B400AF00BFBD465DF8047B704780B4D2
:103A900000AF00BFBD465DF8047B704780B400AF47
:103AA00000BFBD465DF8047B704780B500AF00F0F5
:103AB000F5FD00BF80BD000080B500AF0748FFF7EF
:103AC0009DFF0346002B07D00448FFF789FF4FF402
:103AD00000510348FFF7A5FF00BF80BD004801402B
:103AE0000008024080B500AF024801F0F2FC00BFC0
:103AF00080BD00BFDC18002080B400AF0123184651
:103B0000BD465DF8047B704780B582B000AF786039
:103B1000396008F067FD034616221A604FF0FF3344
:103B200018460837BD4680BD80B582B000AF7860CA
:103B30004FF0FF317868FFF7E7FF00BFFDE780B582
:103B400086B000AFF860B9607A6000237B610AE05C
:103B5000AFF300800146BB685A1CBA60CAB21A7043
:103B60007B6901337B617A697B689A42F0DB7B6811
:103B700018461837BD4680BD80B483B000AF78606A
:103B80004FF0FF3318460C37BD465DF8047B704795
:103B900080B483B000AF786039603B684FF4005266
:103BA0005A60002318460C37BD465DF8047B704709
:103BB00080B483B000AF7860012318460C37BD464F
:103BC0005DF8047B704780B485B000AFF860B960E1
:103BD0007A60002318461437BD465DF8047B7047B1
:103BE00080B586B000AF7860144A154BD31A7B615C
:103BF0007B693B61134B1B68002B02D1114B124AAE
:103C00001A60104B1A687B6813443A699A4207D2CB
:103C100008F0E8FC03460C221A604FF0FF3309E07D
:103C2000084B1B68FB60074B1A687B681344054A06
:103C30001360FB6818461837BD4680BD00000120A0
:103C400000040000C80300203021002080B400AF31
:103C5000064BD3F88830054A43F47003C2F8883025
:103C600000BFBD465DF8047B704700BF00ED00E07B
:103C700080B584B000AF7860224BDB689847214B59
:103C80005B6998471F4B5B6A002B03D01D4B9B6AF7
:103C9000002B14D11B4B1B6A7A68120CD2B210464F
:103CA0009847184B1B6A7A68120AD2B21046984796
:103CB000144B1B6A7A68D2B21046984711E07B68B1
:103CC0001B0CDBB23B737B681B0ADBB27B737B682C
:103CD000DBB2BB730B4B9B6A07F10C02032110464E
:103CE0009847084BDB6998470346FB73054B9B6974
:103CF0009847044B1B699847FB7B18461037BD4615
:103D000080BD00BFE400002080B584B000AF7860C3
:103D10000B46FB70224BDB689847214B5B69984749
:103D20007B6843F004037B601D4B9B6A002B19D119
:103D30001B4B1B6A7A68120CD2B210469847184B7C
:103D40001B6A7A68120AD2B210469847144B1B6A53
:103D50007A68D2B210469847114B1B6AFA7810461F
:103D6000984713E07B681B0CDBB23B737B681B0A34
:103D7000DBB27B737B68DBB2BB73FB78FB73084BF6
:103D80009B6A07F10C02042110469847044B9B697B
:103D90009847034B1B69984700BF1037BD4680BD4D
:103DA000E400002090B587B000AFF860B96013461A
:103DB000FB802B4BDB689847294B5B699847284B66
:103DC0005B6A002B03D0264B9B6A002B26D1244B29
:103DD0001B6AFA68120CD2B210469847204B1B6A35
:103DE000FA68120AD2B2104698471D4B1B6AFA684D
:103DF000D2B2104698470023FB820AE0184BDB69D9
:103E0000FA8AB9688C18984703462370FB8A0133F5
:103E1000FB82FA8AFB889A42F0D317E0FB681B0CFE
:103E2000DBB23B74FB681B0ADBB27B74FB68DBB262
:103E3000BB740B4B9B6A07F1100203211046984795
:103E4000074B5B6AFA881146B8689847044B9B6930
:103E50009847034B1B69984700BF1C37BD4690BD70
:103E6000E400002080B586B000AFF860B96013466A
:103E7000FB802B4BDB689847294B5B699847FB68B5
:103E800043F00403FB60264B9B6A002B26D1244B96
:103E90001B6AFA68120CD2B210469847204B1B6A74
:103EA000FA68120AD2B2104698471D4B1B6AFA688C
:103EB000D2B2104698470023FB820AE0184B1B6AD7
:103EC000FA8AB9680A44127810469847FB8A013387
:103ED000FB82FA8AFB889A42F0D317E0FB681B0C3E
:103EE000DBB23B74FB681B0ADBB27B74FB68DBB2A2
:103EF000BB740B4B9B6A07F11002032110469847D5
:103F0000074B9B6AFA881146B8689847044B9B692F
:103F10009847034B1B69984700BF1837BD4680BDC3
:103F2000E400002090B585B000AF0346FB7100238C
:103F3000FB810023BB81FB799B000133DB0003F590
:103F400000531846FFF794FE0346BB81BB891B0252
:103F50009CB2FB799B000133DB0003F50453184648
:103F6000FFF786FE03462344BB81BB89002B19D093
:103F7000FB799B000133DB0003F500531846FFF784
:103F800077FE0346FB81FB891B029CB2FB799B00F9
:103F90000133DB0003F504531846FFF769FE0346BF
:103FA0002344FB81FA89BB899A42C4D1FB89184614
:103FB0001437BD4690BD90B585B000AF0346FB7188
:103FC0000023FB810023BB81FB799B000133DB00D5
:103FD00003F518531846FFF74BFE0346BB81BB8918
:103FE0001B029CB2FB799B000133DB0003F51C53E1
:103FF0001846FFF73DFE03462344BB81BB89002BD7
:1040000019D0FB799B000133DB0003F518531846E8
:10401000FFF72EFE0346FB81FB891B029CB2FB7956
:104020009B000133DB0003F51C531846FFF720FE0D
:1040300003462344FB81FA89BB899A42C4D1FB8998
:1040400018461437BD4690BD90B585B000AF034605
:104050003960FB711346BB800023FB810023BB60EA
:10406000BB88002B46D0FB799B000133DB0003F5B6
:1040700010531846FFF7FCFD03461B029CB2FB7968
:104080009B000133DB0003F514531846FFF7F0FDE6
:1040900003462344FB81FB891B02FA79920002321A
:1040A000D2001344BB60BB881A463968B868FFF772
:1040B000D9FEFA89BB881344FB81FB799B0001334D
:1040C000DB0003F510531A46FB891B0A9BB2DBB2D7
:1040D00019461046FFF718FEFB799B000133DB0001
:1040E00003F514531A46FB89DBB219461046FFF755
:1040F0000BFE00E000BF1437BD4690BD90B585B003
:1041000000AF03463960FB711346BB800023FB817F
:104110000023BB60BB88002B46D0FB799B0001339A
:10412000DB0003F520531846FFF7A2FD03461B02F0
:104130009CB2FB799B000133DB0003F52453184646
:10414000FFF796FD03462344FB81FB891B02FA79A6
:1041500092000332D2001344BB60BB881A46396810
:10416000B868FFF71FFEFA89BB881344FB81FB790F
:104170009B000133DB0003F520531A46FB891B0A21
:104180009BB2DBB219461046FFF7BEFDFB799B00E0
:104190000133DB0003F524531A46FB89DBB21946D1
:1041A0001046FFF7B1FD00E000BF1437BD4690BDDB
:1041B00080B400AF00BFBD465DF8047B704780B49B
:1041C00000AF00BFBD465DF8047B704780B400AF10
:1041D00000BFBD465DF8047B704780B400AF00BFF0
:1041E000BD465DF8047B704780B483B000AF786053
:1041F0007B681B78DBB218460C37BD465DF8047B44
:10420000704780B483B000AF78600B46FB707B686A
:10421000FA781A7000BF0C37BD465DF8047B704712
:1042200080B400AF00231846BD465DF8047B70479C
:1042300080B483B000AF0346FB7100BF0C37BD46AE
:104240005DF8047B704780B483B000AF78600B46A4
:104250007B8000BF0C37BD465DF8047B704780B49F
:1042600083B000AF78600B467B8000BF0C37BD4643
:104270005DF8047B7047000080B483B000AF7860C5
:1042800039607B68002B02D03B68002B06D10A4BBB
:104290000A4A5A61084B0A4A9A6106E0064A7B6854
:1042A0005361054A3B68936100BF00BF0C37BD46B0
:1042B0005DF8047B704700BFE4000020CD4100089A
:1042C000DB41000880B483B000AF7860396000BF84
:1042D0000F4B1B8803F40073002BF9D07B68002B75
:1042E00002D03B68002B06D1094B0A4ADA61084B21
:1042F000094A1A6206E0064A7B68D361044A3B68B1
:10430000136200BF00BF0C37BD465DF8047B7047E9
:10431000E4000020214200083142000880B483B04C
:1043200000AF7860396000BF0F4B1B8803F4007347
:10433000002BF9D07B68002B02D03B68002B06D104
:10434000094B0A4A5A62084B094A9A6206E0064A31
:104350007B685362044A3B68936200BF00BF0C371E
:10436000BD465DF8047B7047E4000020474200082A
:104370005F42000880B586B000AF3B1D062219469B
:104380004FF41060FFF70EFD07F1140304221946E5
:104390004FF48070FFF706FD07F110030422194661
:1043A0004FF4A060FFF7FEFC07F10C03042219464E
:1043B0004FF47060FFF7F6FC80210020FFF7A4FCAB
:1043C0000020FFF755FC3B1D062219464FF41060F4
:1043D000FFF748FD07F11403042219464FF48070DB
:1043E000FFF740FD07F11003042219464FF4A060C7
:1043F000FFF738FD07F10C03042219464FF47060F3
:10440000FFF730FD00BF1837BD4680BD80B584B0D2
:1044100000AF786039600023BB73FFF7ABFF7B68A8
:10442000002B3BD00023BB730023FB7315E097F9EF
:104430000F307A6813441A78BB7B1344DBB2BB732A
:1044400097F90E30102B02DD4FF0FF3366E097F93D
:104450000F30DBB20133DBB2FB7397F90F30072B60
:10446000E5DD0023FB7315E097F90F309B00013366
:10447000DB0003F5F853184697F90F307A681344B8
:104480001B781946FFF740FC97F90F30DBB2013378
:10449000DBB2FB7397F90F30072BE5DD3B68002B90
:1044A0003BD00023BB730023FB7315E097F90F305B
:1044B0003A6813441A78BB7B1344DBB2BB7397F999
:1044C0000E30102B02DD4FF0FF3327E097F90F304D
:1044D000DBB20133DBB2FB7397F90F30072BE5DD5D
:1044E0000023FB7315E097F90F309B000133DB00CD
:1044F00003F5F053184697F90F303A6813441B78C8
:104500001946FFF701FC97F90F30DBB20133DBB23C
:10451000FB7397F90F30072BE5DD002318461037A2
:10452000BD4680BD80B582B000AF78607B68062252
:1045300019464FF41060FFF795FC7B680E33042298
:1045400019464FF48070FFF78DFC7B680A33042214
:1045500019464FF4A060FFF785FC7B680633042200
:1045600019464FF47060FFF77DFC7B689A7C0B4B1B
:104570001A707B68DA7C094B5A707B681A7D074B8E
:104580009A707B685A7D054BDA707B689A7D044B84
:104590001A7000BF0837BD4680BD00BFCC030020A5
:1045A000D0030020DFF834D0FFF750FB0C480D4952
:1045B0000D4A002302E0D458C4500433C4188C427E
:1045C000F9D30A4A0A4C002301E013600432A242E4
:1045D000FBD308F00DF8FEF77FF8704700000120CC
:1045E0000000002064020020E4F7000864020020BC
:1045F0002C210020FEE7000080B500AF0E4B1B68A9
:104600000D4A43F4007313600B4B1B680A4A43F4D2
:1046100080631360084B1B68074A43F48073136080
:10462000032000F04FF90F2000F008F8FFF768F9B9
:104630000023184680BD00BF003C024080B582B018
:1046400000AF7860124B1A68124B1B7819464FF472
:104650007A73B3FBF1F3B2FBF3F3184600F067F99A
:104660000346002B01D001230EE07B680F2B0AD8F4
:10467000002279684FF0FF3000F02FF9064A7B687E
:104680001360002300E0012318460837BD4680BDB3
:10469000E0000020140100201001002080B400AFD1
:1046A000064B1B781A46064B1B681344044A1360DA
:1046B00000BFBD465DF8047B704700BF14010020B9
:1046C000D403002080B400AF034B1B681846BD46DE
:1046D0005DF8047B704700BFD403002080B584B030
:1046E00000AF7860FFF7EEFFB8607B68FB60FB68A7
:1046F000B3F1FF3F05D00A4B1B781A46FB68134401
:10470000FB6000BFFFF7DEFF0246BB68D31AFA6802
:104710009A42F7D800BF00BF1037BD4680BD00BF2A
:104720001401002080B485B000AF78607B6803F08E
:104730000703FB600C4BDB68BB60BA684FF6FF03F6
:104740001340BB60FB681A02BB68134343F0BF63AE
:1047500043F40033BB60044ABB68D36000BF143726
:10476000BD465DF8047B704700ED00E080B400AF0B
:10477000044BDB681B0A03F007031846BD465DF8CF
:10478000047B704700ED00E080B483B000AF0346C7
:10479000FB7197F90730002B0BDBFB7903F01F024D
:1047A000074997F907305B09012000FA02F241F846
:1047B000232000BF0C37BD465DF8047B704700BF67
:1047C00000E100E080B483B000AF03463960FB71C4
:1047D00097F90730002B0ADB3B68DAB20C4997F9EE
:1047E00007301201D2B20B4483F800230AE03B6881
:1047F000DAB20849FB7903F00F03043B1201D2B28D
:104800000B441A7600BF0C37BD465DF8047B704739
:1048100000E100E000ED00E080B489B000AFF86096
:10482000B9607A60FB6803F00703FB61FB69C3F1C1
:104830000703042B28BF0423BB61FB690433062B49
:1048400002D9FB69033B00E000237B614FF0FF329C
:10485000BB6902FA03F3DA43BB681A407B699A40EA
:104860004FF0FF317B6901FA03F3D9437B680B40BA
:10487000134318462437BD465DF8047B704700009B
:1048800080B582B000AF78607B68013BB3F1807F78
:1048900001D301230FE00A4A7B68013B53600F21DB
:1048A0004FF0FF30FFF78EFF054B00229A60044B5C
:1048B00007221A60002318460837BD4680BD00BF96
:1048C00010E000E080B582B000AF78607868FFF754
:1048D00029FF00BF0837BD4680BD80B586B000AF58
:1048E0000346B9607A60FB7300237B61FFF73EFFEC
:1048F00078617A68B9687869FFF78EFF024697F9A0
:104900000F3011461846FFF75DFF00BF1837BD4650
:1049100080BD80B582B000AF0346FB7197F90730C8
:104920001846FFF731FF00BF0837BD4680BD80B590
:1049300082B000AF78607868FFF7A2FF03461846A0
:104940000837BD4680BD000080B586B000AFF86076
:10495000B960C7E90023234B1B7E012B01D1022341
:104960003BE0204B01221A764CF2503000F070F8F8
:104970000346FB75FB7D002B2BD1FB68002B05D17B
:104980003B781946B86800F01BF916E0FB68012B6C
:1049900005D13B881946B86800F0EEF80DE0FB68D9
:1049A000022B05D13B681946B86800F0C3F804E053
:1049B000D7E90023B86800F08BF84CF2503000F0D3
:1049C00047F80346FB75084B1B69074A23F00103B0
:1049D0001361044B00221A76FB7D18461837BD463A
:1049E00080BD00BFD8030020003C024080B483B0EB
:1049F00000AF0023FB710B4B1B69002B0BDA094B3B
:104A0000094A5A60074B094A5A60064B1B69002B3A
:104A100001DA0123FB71FB7918460C37BD465DF8BE
:104A2000047B7047003C024023016745AB89EFCD12
:104A300080B400AF054B1B69044A43F00043136187
:104A400000231846BD465DF8047B7047003C0240D9
:104A500080B584B000AF78600023FB601A4B002261
:104A6000DA61FFF72FFEF86010E07B68B3F1FF3FDB
:104A70000CD07B68002B07D0FFF724FE0246FB68B2
:104A8000D31A7A689A4201D2032319E00F4BDB68EC
:104A900003F48033002BE8D10C4BDB6803F00103F7
:104AA000002B02D0094B0122DA60084BDB6803F4CB
:104AB000F973002B03D000F0A5F8012300E00023D8
:104AC00018461037BD4680BDD8030020003C024088
:104AD00080B485B000AFF860C7E90023144B1B69B0
:104AE000134A23F440731361114B1B69104A43F4BA
:104AF000407313610E4B1B690D4A43F001031361B0
:104B0000FB683A681A60BFF36F8F00BFD7E90001F6
:104B10004FF000024FF000030A000023F96804314F
:104B200013460B6000BF1437BD465DF8047B704729
:104B3000003C024080B483B000AF786039600D4B18
:104B40001B690C4A23F4407313610A4B1B69094A21
:104B500043F400731361074B1B69064A43F00103DA
:104B600013617B683A681A6000BF0C37BD465DF878
:104B7000047B7047003C024080B483B000AF786093
:104B80000B467B800D4B1B690C4A23F44073136169
:104B90000A4B1B69094A43F480731361074B1B6975
:104BA000064A43F0010313617B687A881A8000BFCC
:104BB0000C37BD465DF8047B704700BF003C0240E7
:104BC00080B483B000AF78600B46FB700C4B1B6960
:104BD0000B4A23F440731361094B094A1B691361A3
:104BE000074B1B69064A43F0010313617B68FA789F
:104BF0001A7000BF0C37BD465DF8047B704700BFDC
:104C0000003C024080B400AF2F4BDB6803F0100380
:104C1000002B08D02D4BDB6943F010032B4AD361E6
:104C2000294B1022DA60284BDB6803F02003002BAD
:104C300008D0264BDB6943F00803244AD361224B9A
:104C40002022DA60204BDB6803F04003002B08D001
:104C50001E4BDB6943F004031C4AD3611A4B40220C
:104C6000DA60194BDB6803F08003002B08D0174B88
:104C7000DB6943F00203154AD361134B8022DA60EB
:104C8000114BDB6803F48073002B09D00F4BDB69F9
:104C900043F001030D4AD3610B4B4FF48072DA608D
:104CA000094BDB6803F00203002B08D0074BDB69DC
:104CB00043F02003054AD361034B0222DA6000BFB0
:104CC000BD465DF8047B7047003C0240D8030020DD
:104CD00080B584B000AF786039600023BB60314B91
:104CE0001B7E012B01D1022358E02E4B01221A76A4
:104CF0004CF25030FFF7ACFE0346FB73FB7B002BFE
:104D000048D13B684FF0FF321A607B681B68012B6B
:104D100015D17B681B69DAB27B685B68194610465F
:104D200000F044F84CF25030FFF792FE0346FB735C
:104D30001D4B1B691C4A23F00403136128E07B68A8
:104D40009B68BB601CE07B681B69DBB21946B868D6
:104D500000F050F84CF25030FFF77AFE0346FB7338
:104D6000114B1B69104A23F0FA031361FB7B002BE4
:104D700003D03B68BA681A600AE0BB680133BB60C5
:104D80007B68DA687B689B681344BA689A42DAD316
:104D900000F078F8034B00221A76FB7B1846103798
:104DA000BD4680BDD8030020003C024080B483B0E3
:104DB00000AF03463960FB710D4B1B690C4A23F4AD
:104DC000407313610A4B1B69094A43F004031361E2
:104DD000074B1A69FB791B021343054A43F48033DE
:104DE000136100BF0C37BD465DF8047B704700BF00
:104DF000003C024080B485B000AF78600B46FB7089
:104E00000023FB60FB78002B02D10023FB6010E045
:104E1000FB78012B03D14FF48073FB6009E0FB7832
:104E2000022B03D14FF40073FB6002E04FF4407398
:104E3000FB60134B1B69124A23F440731361104B40
:104E40001A690F49FB6813430B610D4B1B690C4A30
:104E500023F0F80313610A4B1A697B68DB001343E4
:104E6000074A43F002031361054B1B69044A43F4EC
:104E70008033136100BF1437BD465DF8047B704773
:104E8000003C024080B400AF204B1B6803F4007369
:104E9000002B17D01D4B1B681C4A23F400731360B2
:104EA0001A4B1B68194A43F400631360174B1B68C5
:104EB000164A23F400631360144B1B68134A43F42F
:104EC00000731360114B1B6803F48063002B17D031
:104ED0000E4B1B680D4A23F4806313600B4B1B6859
:104EE0000A4A43F480531360084B1B68074A23F4B3
:104EF00080531360054B1B68044A43F480631360BE
:104F000000BFBD465DF8047B704700BF003C024017
:104F100080B489B000AF7860396000237B610023E2
:104F20003B610023BB610023FB6159E10122FB6966
:104F300002FA03F37B613B681B687A6913403B61AB
:104F40003A697B699A4240F048813B685B6803F0AC
:104F50000303012B05D03B685B6803F00303022BBE
:104F600030D17B689B68BB61FB695B00032202FA5E
:104F700003F3DB43BA691340BB613B68DA68FB6942
:104F80005B0002FA03F3BA691343BB617B68BA6939
:104F90009A607B685B68BB610122FB6902FA03F3DC
:104FA000DB43BA691340BB613B685B681B0903F0D4
:104FB0000102FB6902FA03F3BA691343BB617B6820
:104FC000BA695A603B685B6803F00303032B17D090
:104FD0007B68DB68BB61FB695B00032202FA03F3B9
:104FE000DB43BA691340BB613B689A68FB695B00AD
:104FF00002FA03F3BA691343BB617B68BA69DA60EA
:105000003B685B6803F00303022B23D1FB69DA08DA
:105010007B68083253F82230BB61FB6903F0070359
:105020009B000F2202FA03F3DB43BA691340BB6112
:105030003B681A69FB6903F007039B0002FA03F35C
:10504000BA691343BB61FB69DA087B680832B96946
:1050500043F822107B681B68BB61FB695B0003227D
:1050600002FA03F3DB43BA691340BB613B685B6838
:1050700003F00302FB695B0002FA03F3BA6913430E
:10508000BB617B68BA691A603B685B6803F44033B4
:10509000002B00F0A2800023FB60574B5B6C564A4C
:1050A00043F480435364544B5B6C03F48043FB60D4
:1050B000FB68524AFB699B08023352F82330BB61FC
:1050C000FB6903F003039B000F2202FA03F3DB43A7
:1050D000BA691340BB617B68494A934219D07B6827
:1050E000484A934213D07B68474A93420DD07B686D
:1050F000464A934207D07B68454A934201D1042334
:1051000008E0072306E0032304E0022302E0012372
:1051100000E00023FA6902F0030292009340BA69AA
:105120001343BB613549FB699B080233BA6941F8F7
:105130002320384B9B68BB613B69DB43BA69134052
:10514000BB613B685B6803F48013002B03D0BA6932
:105150003B691343BB612F4ABB6993602D4BDB68EE
:10516000BB613B69DB43BA691340BB613B685B6869
:1051700003F40013002B03D0BA693B691343BB61EE
:10518000244ABB69D360234B5B68BB613B69DB434B
:10519000BA691340BB613B685B6803F40033002BC2
:1051A00003D0BA693B691343BB611A4ABB695360B8
:1051B000184B1B68BB613B69DB43BA691340BB6199
:1051C0003B685B6803F48033002B03D0BA693B690A
:1051D0001343BB610F4ABB691360FB690133FB6179
:1051E000FB690F2B7FF6A2AE00BF00BF2437BD4680
:1051F0005DF8047B704700BF003802400038014072
:10520000000002400004024000080240000C02407E
:1052100000100240003C014080B483B000AF7860D1
:105220000B467B8013467B707B78002B03D07A88FB
:105230007B689A6103E07B881A047B689A6100BFEF
:105240000C37BD465DF8047B704780B586B002AF71
:1052500078607B68002B01D1012301E17B681B682A
:10526000BB607B6893F89534DBB2002B06D17B687A
:10527000002283F89424786806F0A8FA7B68032259
:1052800083F89524BB68B3F1A04F02D17B6800225C
:105290009A717B681B68184602F01DFE7B681868CF
:1052A0007B681A7C8DF8002004330ECB02F0FCFCE6
:1052B0000346002B05D07B68022283F89524012346
:1052C000CEE07B681B680021184602F015FE0346FD
:1052D000002B05D07B68022283F895240123BFE0D0
:1052E0000023FB734AE0FA7B79681346DB00134422
:1052F0009B000B44153301221A70FA7B7968134620
:10530000DB0013449B000B441433FA7B1A70FA7BC6
:10531000FB7B98B279681346DB0013449B000B4477
:105320002E3302461A80FA7B79681346DB00134459
:105330009B000B44183300221A70FA7B79681346DD
:10534000DB0013449B000B441C3300221A60FA7BE1
:1053500079681346DB0013449B000B442033002282
:105360001A60FA7B79681346DB0013449B000B44F8
:10537000243300221A60FB7B0133FB737B681B79AB
:10538000FA7B9A42AFD30023FB7344E0FA7B79683F
:105390001346DB0013449B000B4403F25523002209
:1053A0001A70FA7B79681346DB0013449B000B44A8
:1053B00003F51573FA7B1A70FA7B79681346DB00E4
:1053C00013449B000B4403F5167300221A70FA7BFA
:1053D00079681346DB0013449B000B4403F51773F5
:1053E00000221A60FA7B79681346DB0013449B00A5
:1053F0000B4403F5187300221A60FA7B7968134690
:10540000DB0013449B000B4403F5197300221A6060
:10541000FB7B0133FB737B681B79FA7B9A42B5D324
:105420007B6818687B681A7C8DF8002004330ECBEB
:1054300002F0AEFD0346002B05D07B68022283F804
:10544000952401230CE07B6800225A747B680122BA
:1054500083F895247B681B68184603F0F8FD002349
:1054600018461037BD4680BD80B584B000AF786067
:105470007B681B68FB607B6893F89434012B01D137
:10548000022322E07B68012283F89424FB68DB6816
:1054900003F04003002B09D07B685B7B012B05D117
:1054A000FB689B6B43F48032FB689A637B681B68E4
:1054B000184602F0FFFC7B681B68184603F0A6FD47
:1054C0007B68002283F89424002318461037BD46D9
:1054D00080BD90B58DB000AF78607B681B683B6283
:1054E0003B6AFB617B681B68184603F064FE034659
:1054F000002B40F08C847B681B68184603F0C8FDC5
:105500000346002B00F08284FB6903F500639B686F
:105510001B0AC3F30D027B68C3F8D4247B681B68A5
:10552000184603F0B5FD034603F00203022B07D132
:105530007B681B685A697B681B6802F002025A612B
:105540007B681B68184603F0A3FD034603F01003B5
:10555000102B61D17B681B689A697B681B6822F0FD
:1055600010029A613B6A1B6ABB61BB6903F00F02C0
:105570001346DB0013449B0003F514737A6813444D
:1055800004337B61BB695B0C03F00F03022B24D156
:10559000BA6947F6F0731340002B35D07B69D968A0
:1055A000BB691B099BB2C3F30A039BB21A46386A54
:1055B00003F0DAFB7B69DA68BB691B09C3F30A03F2
:1055C0001A447B69DA607B695A69BB691B09C3F3BA
:1055D0000A031A447B695A6116E0BB695B0C03F04D
:1055E0000F03062B10D17B6803F29C430822194657
:1055F000386A03F0B9FB7B695A69BB691B09C3F3BD
:105600000A031A447B695A617B681B689A697B6844
:105610001B6842F010029A617B681B68184603F011
:1056200037FD034603F40023B3F5002F40F0A780B5
:1056300000237B627B681B68184603F03CFDB86260
:1056400099E0BB6A03F00103002B00F08E807B68B9
:105650001B687A6AD2B21146184603F060FD3861C1
:105660003B6903F00103002B0CD07B6A5A01FB69F4
:10567000134403F530631A4601239360796A78680E
:1056800000F0A4FE3B6903F00803002B0CD07B6AFA
:105690005A01FB69134403F530631A4608239360EB
:1056A000796A786800F07AFF3B6903F01003002BF9
:1056B00008D07B6A5A01FB69134403F530631A462C
:1056C000102393603B6903F00203002B30D03B6A48
:1056D0005B6903F08003802B09D1FB6903F500634C
:1056E0005B68FA6902F5006243F4806353607A6A8A
:1056F0001346DB0013449B0003F514737A681344CC
:1057000004337B617B69DB78012B08D17B69002244
:10571000DA707B6ADBB21946786806F053F97B6A67
:105720005A01FB69134403F530631A460223936060
:105730003B6903F02003002B08D07B6A5A01FB6908
:10574000134403F530631A46202393603B6903F446
:105750000053002B09D07B6A5A01FB69134403F5FF
:1057600030631A464FF4005393607B6A01337B62C7
:10577000BB6A5B08BB62BB6A002B7FF462AF7B68CD
:105780001B68184603F084FC034603F48023B3F53A
:10579000802F40F0DB807B681B68184603F0A5FC77
:1057A000B86200237B62CDE0BB6A03F00103002BEB
:1057B00000F0C2807B681B687A6AD2B21146184634
:1057C00003F0CBFC38613B6903F00103002B57D099
:1057D0007B6A03F00F03012202FA03F3FB60FB690B
:1057E00003F500635A6BFB68DB43F96901F500615F
:1057F00013404B637B6A5A01FB69134403F5106342
:105800001A46012393607B689B79012B32D179681A
:105810007A6A1346DB0013449B000B44203319685B
:1058200078687A6A1346DB0013449B0003441C33F8
:105830001B68194478687A6A1346DB0013449B009E
:105840000344203319607B6A002B13D179687A6A8C
:105850001346DB0013449B000B4424331B68002BCE
:1058600008D17B6818687B6803F29C431A460121C3
:1058700003F0D2FC7B6ADBB21946786806F027F8A1
:105880003B6903F00803002B08D07B6A5A01FB69CF
:10589000134403F510631A46082393603B6903F031
:1058A0001003002B08D07B6A5A01FB69134403F5EF
:1058B00010631A46102393603B6903F04003002BEA
:1058C00008D07B6A5A01FB69134403F510631A463A
:1058D000402393603B6903F00203002B23D0796AD5
:1058E000386A02F0B9FC7A6A1346DB0013449B0065
:1058F00010337A68134404337B617B69DB78012BB6
:1059000008D17B690022DA707B6ADBB219467868BD
:1059100006F06AF87B6A5A01FB69134403F51063C9
:105920001A46022393603B6903F08003002B03D0E7
:10593000796A786800F0BDFC7B6A01337B62BB6AE0
:105940005B08BB62BB6A002B7FF42EAF7B681B68D1
:10595000184603F09DFB034603F00043B3F1004FEC
:1059600022D1FB6903F500635B68FA6902F5006206
:1059700023F0010353607B6893F8CC34012B08D1EA
:105980007B68002283F8CC240021786800F0A4FE14
:1059900002E0786806F008F87B681B685A697B6843
:1059A0001B6802F000425A617B681B68184603F0CE
:1059B0006FFB034603F40063B3F5006F12D1FB697C
:1059C00003F500639B6803F00103012B02D17868A3
:1059D00005F0C4FF7B681B685A697B681B6802F48A
:1059E00000625A617B681B68184603F051FB03464E
:1059F00003F48053B3F5805F40F0B780FB6903F593
:105A000000635B68FA6902F5006223F001035360EA
:105A10007B681B681021184602F01EFC0023FB6205
:105A200046E0FB6A5A01FB69134403F510631A460A
:105A30004FF67F339360FB6A5A01FB69134403F509
:105A400010631B68FA6A5101FA690A4402F5106290
:105A500023F400131360FB6A5A01FB69134403F536
:105A600030631A464FF67F339360FB6A5A01FB6935
:105A7000134403F530631B68FA6A5101FA690A445A
:105A800002F5306223F400131360FB6A5A01FB69CC
:105A9000134403F530631B68FA6A5101FA690A443A
:105AA00002F5306243F000631360FB6A0133FB626E
:105AB0007B681B791A46FB6A9342B2D3FB6903F5F4
:105AC0000063DB69FA6902F5006243F00113D361F8
:105AD0007B68DB7B002B16D0FB6903F50063D3F8F2
