:020000040800F2
:1000000000000120392D00087D2700088527000801
:1000100087270008892700088B27000800000000B8
:100020000000000000000000000000008D27000814
:100030008F27000800000000912700089327000880
:10004000892D0008892D0008892D0008892D0008B8
:10005000892D0008892D0008892D0008892D0008A8
:10006000892D0008892D0008892D0008892D000898
:10007000892D0008892D0008892D0008892D000888
:10008000892D0008892D0008892D00080000000036
:10009000000000000000000000000000892D0008A2
:1000A000892D0008892D000899270008892D00084E
:1000B000892D0008892D0008892D0008892D000848
:1000C000892D0008892D0008892D0008892D000838
:1000D000892D0008892D0008892D000800000000E6
:1000E000892D0008892D0008892D000800000000D6
:1000F000000000000000000000000000892D000842
:1001000000000000892D0008892D0008892D0008B5
:1001100000000000000000000000000000000000DF
:10012000892D0008892D0008892D0008892D0008D7
:10013000892D000800000000000000000000000001
:10014000000000000000000000000000C5270008BB
:10015000892D0008892D0008892D0008892D0008A7
:10016000892D0008892D0008000000000000000013
:10017000000000000000000000000000000000007F
:1001800000000000892D00080000000000000000B1
:04019000892D0008AD
:1001A00010B5054C237833B9044B13B10448AFF3B1
:1001B00000800123237010BD6002002000000000B9
:1001C0009485000808B5034B1BB103490348AFF3FE
:1001D000008008BD00000000640200209485000833
:1001E00010F8012B11F8013B012A28BF9A42F7D0E1
:1001F000D01A7047034613F8012B002AFBD1181AB6
:1002000001387047000000000000000000000000FE
:1002100001F0FF01102A2BDB10F0070F08D010F8B7
:10022000013B013A8B422DD010F0070F42B3F6D1BB
:10023000F0B441EA012141EA014122F007047FF0D4
:1002400000070023F0E80256083C85EA010586EA2B
:10025000010685FA47F5A3FA87F586FA47F6A5FA67
:1002600087F68EB9EED1F0BC01F0FF0102F0070273
:1002700032B110F8013B013A83EA010313B1F8D11E
:100280000020704701387047002D06BF35460338FF
:10029000073815F0010F07D1013015F4807F02BF38
:1002A000013015F4C03F0130F0BC0138704700BF89
:1002B00053B94AB9002908BF00281CBF4FF0FF31CD
:1002C0004FF0FF3000F06AB9ADF1080C6DE904CED3
:1002D00000F006F8DDF804E0DDE9022304B0704721
:1002E0002DE9F047089D0C46002B4ED194468C45D5
:1002F0008646B2FA82F262D94AB1C2F12003914035
:1003000020FA03F30CFA02FC194300FA02FE4FEA4A
:100310001C471FFA8CF6B1FBF7F44FEA1E4307FBAC
:10032000141143EA014304FB06F199420AD91CEB7C
:10033000030304F1FF3080F01281994240F20F81F3
:10034000023C6344591A1FFA8EF3B1FBF7F007FB26
:10035000101143EA014300FB06F69E420AD91CEB4A
:10036000030300F1FF3180F0FC809E4240F2F980EF
:10037000634402389B1B40EA044000211DB1D34076
:100380000022C5E90032BDE8F0878B4205D90DB1E6
:10039000C5E9000100210846F5E7B3FA83F1002919
:1003A00046D1A34202D39042C0F0F080861A64EB9B
:1003B00003030120002DE6D0C5E90063E3E7002A2E
:1003C00040F09080A1EB0C044FEA1C481FFA8CF718
:1003D0000121B4FBF8F64FEA1E4308FB164443EA3A
:1003E000044307FB06F0984208D91CEB030306F10F
:1003F000FF3402D2984200F2CD8026461C1A1FFA22
:100400008EF3B4FBF8F008FB104443EA044300FB0E
:1004100007F79F4208D91CEB030300F1FF3402D217
:100420009F4200F2B0802046DB1B40EA0640A5E771
:10043000C1F120068B4022FA06F71F4320FA06FC82
:1004400004FA01F343EA0C03F44000FA01F8380C13
:100450004FEA1349B4FBF0FE1FFA87FC00FB1E4471
:1004600049EA04440EFB0CF9A14502FA01F20AD94B
:100470003C190EF1FF3A80F08480A14540F2818062
:10048000AEF1020E3C44A4EB09041FFA83F9B4FB5D
:10049000F0F300FB134449EA044403FB0CFCA445BD
:1004A00007D93C1903F1FF3067D2A44565D9023B57
:1004B0003C4443EA0E40A0FB0293A4EB0C049C4294
:1004C000CE469C4651D34ED055B1B8EB0E0364EBEB
:1004D0000C0404FA06F6CB401E43CC40C5E9006488
:1004E000002150E7C2F1200320FA03F10CFA02FCCC
:1004F00024FA03F394400C434FEA1C4800FA02FE2E
:100500001FFA8CF7B3FBF8F008FB1031230C43EA19
:10051000014300FB07F1994208D91CEB030300F1EA
:10052000FF362CD299422AD9023863445B1AA4B20E
:10053000B3FBF8F108FB113344EA034401FB07F372
:10054000A34208D91CEB040401F1FF3613D2A342E5
:1005500011D902396444E41A41EA004139E70446FA
:10056000F0E6084606E7C845AED2B9EB020E63EBEB
:10057000070C0138A8E73146EDE7034699E7304616
:10058000D4E7D6467FE7634402384DE70646234664
:1005900008460FE7023E634430E700BF704700BFE4
:1005A00002480022102102F037BF00BF00000240C5
:1005B00002480122102102F02FBF00BF00000240BC
:1005C0000A4664230146014804F0BCB980020020B9
:1005D00007B501210DF10700FFF7F2FF9DF80700B5
:1005E00003B05DF804FB00000A466423014601489D
:1005F00003F0FCBF8002002007B501218DF8070041
:100600000DF10700FFF7F0FF03B05DF804FB0000F9
:10061000DFF8C8C0F0B500230646154603F1030E07
:100620008E4505F1040706F1030620D99F1CB94247
:10063000A5EB020403F101063DD1C15C835D2748AF
:100640001B0203EB01438908415C2970C3F30531A8
:1006500015199B09415C697003F03F03E11CC35C01
:10066000AB703D205054043400231355F0BD16F8F0
:10067000023C16F8034C1B0203EB044316F8014C32
:100680009D0C1C44C3F305331CF805501CF80330C3
:1006900007F8033CC4F3851304F03F041CF803304F
:1006A00007F8023C1CF8043007F8045C07F8013C2A
:1006B0003D467346B2E7B142D6D1C35C07499808BC
:1006C0001B01085C287003F03F031019CB5C4370DA
:1006D000E31C3D218170D154C5E700BFA19A0008F9
:1006E00000B593B0074B0093074A084B402102A87E
:1006F00006F090F9064A014602A8FFF789FF13B0F9
:100700005DF804FB9C00002040860008BC0000202F
:100710006103002070B5164990B006F069FB10B96E
:10072000002010B070BD00F115050D21284606F01F
:10073000D0FA0028F4D00026441B3C22314601A800
:10074000009606F0AFFA3E2CEADC224629466846BF
:1007500006F0DEFA04F140030DEB0304054904F84A
:10076000406C6846FFF73CFDB0FA80F04009D8E7DE
:10077000468600086103002001497E2201F0B0BED8
:100780005C86000810B50846144691B205F0C6FD17
:10079000204610BD0346014400208B4200D1704723
:1007A00013F8012B5040F8E770B5BEB0C422002109
:1007B0000DF1330006F076FA3A4B06933A4B07AA4E
:1007C00003F1100518685968144603C40833AB4296
:1007D0002246F7D1186820609988344E9B79A3711E
:1007E0000025A1800DF133032C46711918460F2204
:1007F00006F08EFA10350346802DC47303F1100302
:10080000F3D12B491F220DF1B30006F081FA1F220C
:1008100028498DF8D2400DF1D30006F079FADB219A
:1008200006A88DF8F240FFF7B5FF0146CDF8F300BA
:10083000214806F07FF802F0F3FB204BB322DA6088
:1008400005220123CDE903236946022301A8CDE94E
:1008500001440094059302F0C9FC044630B11848E5
:1008600006F0D0F802F0EEFB3EB070BD06ADA10080
:1008700001F1006155F8042B002301F540310220FD
:1008800002F012FC48B10F48214606F053F802F07E
:10089000D9FB0D4806F0B6F8E6E70134382CE6D16E
:1008A000F5E700BF3512CDAB000000201C00002092
:1008B000BC0000209C000020DB860008003C0240B9
:1008C000F386000807870008288700082DE9F04113
:1008D000304D314C314821682A4606F02BF8236808
:1008E000AB4205D02E4806F08DF80020BDE8F0811F
:1008F000DB212046FFF74EFFD4F8DB100546024609
:10090000284806F017F8D4F8DB30AB4201D026486F
:10091000E9E7264A264B274D144603CCAC42186023
:100920005960224603F10803F6D120681860A188B7
:10093000A279214DDFF89C80204F99809A71002484
:1009400008EB04110F222846002606F0E1F92A469A
:100950002146EE73384605F0EDFF0134012002F028
:1009600065FA082C05F11005EAD1154B15491F222F
:10097000184606F0CDF9144B1449C6771F221846C5
:1009800006F0C6F9C677FFF7ABFE114806F03AF855
:100990000120ABE73512CDAB000003084287000809
:1009A0006E8700088B870008B887000804000308DA
:1009B00000000020140003081C000020E487000849
:1009C000BC0000209B0003089C000020BB00030823
:1009D000F68700081B00030830B52449A3B08B88B4
:1009E000ADF80430224BBDF804209A80214AC3F8A8
:1009F00006206FF07F42C3F80A2002F52842C13278
:100A0000C3F80E204FF008320868C3F81220012204
:100A100018609A750631802202A806F07AFA00243E
:100A2000154B254602A9214418460F2206F070F9FD
:100A300010340346802CC57303F11003F2D10F4B21
:100A40000F491F22184606F063F90E4B0E49C57771
:100A50001F22184606F05CF9C577FFF741FE0B48E8
:100A600023B0BDE8304005F0CDBF00BFAC85000825
:100A700000000020C0A800FA1C000020BC000020DC
:100A8000138800089C0000201988000822880008AC
:100A90002DE9F04FADF5CC5D83B098460DF5CD5303
:100AA00006461D7C62A81033174606F02AFA434911
:100AB00062A806F0FFF8002D69D1414962A806F04E
:100AC000F9F8404962A806F0F5F83F49DFF82891A7
:100AD000DFF828A1DFF828B162A806F0EBF83B495F
:100AE00062A806F0E7F80024022D01D1032C13DCE4
:100AF0003A5D08EB0413012A0093234657D1022DD7
:100B00000CBF334A5A464FF4807122A805F082FF89
:100B100022A962A806F0CEF80134082CE4D12D49B0
:100B200062A806F0C7F82C490B78002B44D062A8C5
:100B300006F0C0F8294962A806F0BCF862AB284A62
:100B40004FF480510DF6881005F064FF0DF6881003
:100B5000FFF750FB234A0346802102A805F05AFF05
:100B600002A8FFF747FB02A982B2304601F0B8FCA9
:100B70000DF68810FFF73EFB0DF6881182B2304665
:100B800001F0AEFC0DF5CC5D03B0BDE8F08F012D9A
:100B9000154962A803D106F08DF8144992E706F0D2
:100BA00089F8084962A806F085F811498EE7022DF8
:100BB0000CBF52464A46A6E70E49B8E73B880008F4
:100BC00057880008B88800081B890008998A00081F
:100BD000B68A0008A58B0008D9020020C68B000841
:100BE00043860008E18B000879890008DC89000849
:100BF0003D8A0008C08B0008718B00081D8B00081F
:100C0000EA8A000807282FD8DFE800F0040B101547
:100C10001A1F24290A1E18BF01220121144802F0BC
:100C2000FBBB0A1E18BF01220221F7E70A1E18BFEC
:100C300001220421F2E70A1E18BF01220821EDE774
:100C40000A1E18BF01221021E8E70A1E18BF012260
:100C50002021E3E70A1E18BF01224021DEE70A1E19
:100C600018BF01228021D9E70146024805F062BE83
:100C700000040240358C000808B5012002F0D6F8C7
:100C8000294805F0BFFE012002F0D0F8274805F002
:100C9000B9FE012002F0CAF8254805F0B3FE012094
:100CA00002F0C4F8234805F0ADFE012002F0BEF8C2
:100CB000214805F0A7FE012002F0B8F81F4805F012
:100CC000A1FE012002F0B2F81D4805F09BFE0120B4
:100CD00002F0ACF81B4805F095FE012002F0A6F8E2
:100CE000194805F08FFE012002F0A0F8174805F022
:100CF00089FE012002F09AF8154805F083FE0120D4
:100D000002F094F8134805F07DFE012002F08EF801
:100D1000114805F077FE012002F088F8BDE8084090
:100D20000E4805F06FBE00BF4F8C0008648C0008B1
:100D3000868C0008B48C0008D98C0008088D000847
:100D4000348D00085D8D0008888D0008B58D000881
:100D5000E98D00081D8E0008468E0008688E000888
:100D600010B586B005AB019304AB00930C4603AB02
:100D70000A4902AA05F082FE04280DD1621E02ABC8
:100D8000033453F8041BFF2906D802F8011FA242BE
:100D9000F7D1012006B010BD0020FBE7958E0008BA
:100DA0002DE9F0438BB009AF08AE07AD06AC88461D
:100DB0000397154902960195009405AB04AA814654
:100DC00005F05CFE06280BD0CDE90267CDE90045B1
:100DD0000E4905AB04AA484605F050FE062810D17E
:100DE00008F1FF3204AB08F1050853F8041BFF2992
:100DF00007D802F8011F4245F7D101200BB0BDE82A
:100E0000F0830020FAE700BFA18E0008B38E00082F
:100E10001FB5214C214805F0F5FD63790293237934
:100E20000193E3780093A378627821781C4805F059
:100E300081FD637A0093237AE279A179194805F05C
:100E400079FD637B0093237BE27AA17A164805F053
:100E500071FD637C0093237CE27BA17B134805F04A
:100E600069FD637D0093237DE27CA17C104805F041
:100E700061FDA17D0F4A104B1048022914BF114695
:100E8000194605F057FD0E4A0E490F4804B0BDE85B
:100E9000104005F04FBD00BF00000020D18E0008BB
:100EA000F08E0008F4960008158F00082B8F0008BC
:100EB000428F0008CA8E0008C58E0008558F0008B2
:100EC0009C000020BC000020608F000808B5054889
:100ED00001F004FF044805F095FDBDE80840FFF768
:100EE00097BF00BF00000020758F00081FB528B90C
:100EF000104805B05DF804EB05F084BD03A9FFF7C9
:100F00002FFFA0B10C4B039AC3F80620FFF7DEFFBA
:100F10009DF80F3000939DF80D209DF80E309DF840
:100F20000C10064805F006FD05B05DF804FB04480A
:100F3000DFE700BF8F8F000800000020A88F0008A7
:100F4000C98F00087FB528B9144807B05DF804EBD5
:100F500005F058BD04A9FFF723FFE0B1104B04983A
:100F6000BDF8142018609A80FFF7B0FF9DF8153087
:100F700002939DF8143001939DF8133000939DF86F
:100F800011209DF812309DF81010064805F0D2FC93
:100F900007B05DF804FB0448D7E700BFF28F0008F4
:100FA00000000020169000084A9000081FB528B9DC
:100FB000104805B05DF804EB05F024BD03A9FFF768
:100FC000CFFEA0B10C4B039AC3F80A20FFF77EFFB7
:100FD0009DF80F3000939DF80D209DF80E309DF880
:100FE0000C10064805F0A6FC05B05DF804FB0448AB
:100FF000DFE700BF76900008000000209390000813
:10100000B59000081FB528B9104805B05DF804EB8D
:1010100005F0F8BC03A9FFF7A3FEA0B10C4B039A9F
:10102000C3F80E20FFF752FF9DF80F3000939DF894
:101030000D209DF80E309DF80C10064805F07AFC46
:1010400005B05DF804FB0448DFE700BFDF9000084F
:1010500000000020FD9000081B9100081FB528B972
:10106000104805B05DF804EB05F0CCBC03A9FFF710
:1010700077FEA0B10C4B039AC3F81220FFF726FFAE
:101080009DF80F3000939DF80D209DF80E309DF8CF
:101090000C10064805F04EFC05B05DF804FB044852
:1010A000DFE700BF41910008000000205B910008CD
:1010B000759100081FB537490446FFF791F848B904
:1010C000354936484B7A00930B7ACA79897905F00D
:1010D00031FC11E032492046FFF782F870B92E4901
:1010E00030484B7902930B790193CB7800938B783E
:1010F0004A78097805F01EFC04B010BD2A49204644
:10110000FFF76EF820B129492046FFF769F838B992
:10111000214927484B7B00930B7BCA7A897AD6E713
:1011200024492046FFF75CF820B123492046FFF709
:1011300057F838B9184921484B7C00930B7CCA7B7F
:10114000897BC4E71E492046FFF74AF838B912499F
:101150001C484B7D00930B7DCA7C897CB7E71A49FC
:101160002046FFF73DF830B91849194804B0BDE8EA
:10117000104005F0DFBB17492046FFF731F810B9E2
:1011800015491648F2E7164804B0BDE8104005F0CE
:1011900039BC00BF9791000800000020F4960008B9
:1011A0009A910008F08E00089E910008A591000811
:1011B000158F0008A8910008B09100082B8F000837
:1011C000B3910008428F0008B7910008BC000020CE
:1011D000BC910008CC9100089C000020D19100082F
:1011E000E191000838B50D4D0378EA5C110704461B
:1011F00000F10100F8D44BB12046FEF7FBFF0138A7
:1012000020448442034602D300225A7038BD1A7823
:10121000AA5C120700F1FF30F3D4F5E7B19F000894
:1012200038B5504905F088FD044620B94E48BDE860
:10123000384005F0E7BB4D49FEF7D2FF30B94949C8
:1012400005F07AFDBDE83840FFF750BE484920461A
:10125000FEF7C6FF30B9434905F06EFDBDE83840E2
:10126000FFF770BE43492046FEF7BAFF20B142495E
:101270002046FEF7B5FF38B93A49002005F05CFD7D
:10128000BDE83840FFF792BE3C492046FEF7A8FF74
:1012900020B13B492046FEF7A3FF38B93149002071
:1012A00005F04AFDBDE83840FFF7ACBE35492046A1
:1012B000FEF796FF30B92B4905F03EFDBDE83840FA
:1012C000FFF7CCBE30492046FEF78AFF08BB2F4906
:1012D00005F032FD0446D0B1FFF784FF237823B137
:1012E0002046FEF787FF1F2801D929489FE7294D8F
:1012F00021461F22284605F00BFD0023EB77FFF760
:10130000EFF925482946BDE8384005F013BB2348CE
:101310008DE723492046FEF763FFE0B91B4905F03E
:101320000BFD0446A8B1FFF75DFF2046FEF762FF04
:101330001F2801D91B487AE71B4D21461F2228464A
:1013400005F0E6FC0023EB77FFF7CAF917482946BA
:10135000D9E717486BE71748214605F0EBFA16481E
:1013600065E700BF62A10008099200089791000894
:101370009A9100089E910008A5910008A891000884
:10138000B0910008B3910008B79100089C9500083F
:1013900039920008BC0000205692000871920008A3
:1013A000CC9100088D9200089C000020AA920008B1
:1013B000C5920008E1920008F992000837B50C4682
:1013C0000A2201A9054605F0E9F9019BAB4205D0C7
:1013D0001B781BB92060012003B030BD0020FBE763
:1013E00008B5FFF7E1F9BDE80840014805F00ABB80
:1013F0002393000808B5FFF769FA28B1FFF766FDE7
:10140000BDE80840FFF704BDBDE80840014805F00D
:10141000F9BA00BF4593000808B5FFF7DDFAFFF7FA
:1014200055FDFFF7C1F9BDE80840014805F0EABAEB
:101430005D93000838B50C4672B60A4D2B889BB2F6
:101440008B423CBF2C88A4B21CB10749224605F050
:1014500060FD064A00232B801370054A137062B6A4
:10146000204638BDD60E0020D80E0020D50E002014
:10147000D40E002070B50B480B4D0C4E05F0C2FA8F
:101480000024012001F0D2FC2A462146304605F016
:1014900051FA0134012001F0C9FC082C05F11005B6
:1014A000EFD170BD8E9300081C000020A4930008AB
:1014B000072838B505460C4604D91148BDE8384020
:1014C00005F0A0BA09B10B780BB90E48F6E708464B
:1014D000FEF790FE0F2801D90B48EFE70B4B03EB0B
:1014E000051321460F22184605F012FC0022C27394
:1014F00029460246BDE83840054805F01BBA00BF42
:10150000B4930008D7930008ED9300081C00002056
:101510001094000837B5154905F00EFC144905462E
:10152000002005F009FC044605B128B9114803B0B4
:10153000BDE8304005F066BAFFF754FE23780BB9DA
:101540000D48F4E701A92846FFF738FF30B90B48EA
:10155000294603B0BDE8304005F0ECB901982146BA
:1015600003B0BDE83040FFF7A3BF00BF62A1000891
:101570009C9500082B940008D79300084A94000813
:1015800010B50446FFF72EFE4548214605F0D2F976
:101590002378002B00F0838042492046FEF720FE8E
:1015A00018B9BDE81040FFF767BB3F490422204649
:1015B00005F09CFB20B9201DBDE81040FFF730BEB0
:1015C0003A490A22204605F091FB28B904F10A00A5
:1015D000BDE81040FFF79EBF35490422204605F0C4
:1015E00085FB20B9201DBDE81040FFF763BD3149E0
:1015F0002046FEF7F5FD20B12F492046FEF7F0FD0D
:1016000018B9BDE81040FFF703BC2C492046FEF78F
:10161000E7FD18B9BDE81040FFF72CBF2849204668
:10162000FEF7DEFD18B9BDE81040FFF7D9BE254929
:101630002046FEF7D5FD18B9BDE81040FFF7DABE29
:1016400021492046FEF7CCFD20B120492046FEF777
:10165000C7FD18B9BDE81040FFF7DEBE1C492046A3
:10166000FEF7BEFD90B91B4805F0CCF9642001F0EF
:10167000DDFBBFF34F8F1849184BCA6802F4E062D4
:101680001343CB60BFF34F8F00BFFDE721461448E3
:1016900005F050F9BDE81040124805F0B3B910BD8F
:1016A000659400086F940008749400087994000809
:1016B0008494000889940008919400089994000883
:1016C000A1940008A6940008AB940008B394000805
:1016D000BB940008C194000800ED00E00400FA0586
:1016E000D6940008EE94000810B5114B1B78ADF5A8
:1016F000006D7BB14FF400616846FFF79BFE48B177
:1017000000230DF8003069460A4805F013F96846D1
:10171000FFF736FF084C237833B1084805F072F91B
:10172000074A0023237013800DF5006D10BD00BF24
:10173000D50E002012950008D40E00202195000837
:10174000D60E002070B5012606EB8005ED0005F5EC
:1017500040750446284601F08FF8A0F11503DBB26E
:10176000082B1BD89E4040F26B12164212D1072B59
:101770000DD0022B0ED1204600F06EFE284601F05F
:101780007BF880B12046BDE8704000F05FBD204688
:1017900000F062FE204600F059FDEFE70028EDD092
:1017A0001328EBD0F6E770BD10B54FF4427001F08E
:1017B00063F8172801D01C2812D10A4C01F030FB25
:1017C00023686BB1C01A42F21073984208D9002105
:1017D000054805F0AFF80020FFF7B4FF00232360B1
:1017E00010BD00BFA40300203A95000807B50022F1
:1017F00008211C4801F010FE022001F017FB012215
:101800000821184801F008FE022001F00FFB1649DC
:10181000164801F0AFF91649164801F0B9F9164912
:10182000164801F0C7F9164A106851686B4603C3A1
:101830006946084601F00DFA124801F04FFA0020FF
:10184000FFF780FF002350220121184600F03CFDE5
:1018500008B900F0CBFD0C4805F0D4F803B05DF8F2
:1018600004FB00BF00000240B1050008A10500080C
:10187000F9050008D1050008E9050008C1050008C0
:1018800094950008000000206E950008F8B53A4EC7
:1018900001F0C6FA336842F20F72C31A934204464B
:1018A0000CD94FF4645000F0E7FF0428014606D03D
:1018B000324805F03FF8FFF799FF3460F8BD4FF468
:1018C000427000F0D9FF1728014626D023D80028FF
:1018D000F3D0A0F11303DBB2012BEED9284805F0B9
:1018E00029F80020FFF72EFF0025264B28461D6013
:1018F00000F0ACFC0A2001F099FA2B462846502251
:10190000012100F0E1FC0546A0BB00F06FFD0128BD
:10191000D3D01D4826E01C28E0D11A4F3B68002B8D
:10192000CBD0E31A43F698229342C6D9174805F064
:1019300001F80020FFF706FF00250A203D6001F0B6
:1019400075FA2B4628465022012100F0BDFC0546C1
:1019500018B10F4805F056F8AFE700F047FD012831
:1019600006D00C4805F04EF8284600F06FFCA4E7BE
:101970000948EFE70948EDE77C0200209D95000843
:1019800041960008A40300207A960008C595000837
:10199000FB95000812960008259600089996000805
:1019A00010B594B0102200210AA805F07BF914228A
:1019B000002103A805F076F9224B002101911A6C51
:1019C00042F080521A641B6C1F4A03F0805301934B
:1019D000019B0291136823F4404343F400431360D6
:1019E000136803F440430293029B01224FF48033B7
:1019F000CDE9082302244FF48003CDE90E431921D9
:101A00004FF4A8730420CDE910130723CDE9120386
:101A100008A802F039FA08B172B6FEE70F23CDE943
:101A200003344FF48053CDE906300590214603A8D6
:101A300002F00CFC08B172B6FEE702F0D3FB14B062
:101A400010BD00BF00380240007000402DE9F04F8B
:101A5000ADF2544D14AC0025A74E01F0BBF9FFF7D1
:101A60009FFF14220021204605F01CF90395336BDB
:101A7000A24843F004033363336B03F0040303937E
:101A8000039B0495336B43F080033363336B03F0A4
:101A900080030493049B0595336B43F00103336388
:101AA000336B03F001030593059B0695336B43F0FD
:101AB00002033363336B03F002032A4606934FF4A9
:101AC0000051069B01F0A8FC2A468D48182101F020
:101AD000A3FC01274FF4005388482146C4E900378E
:101AE000C4E9025501F0D2FBFF2386482146C4E930
:101AF0000037C4E9025501F0C9FB1823804821468C
:101B0000C4E90037C4E9025501F0C0FB7E487F4AB2
:101B100085624FF48273C0E900234FF400712023E3
:101B2000C0E906130A23C0E90255C0E90455C0E91B
:101B30000855C36202F0FEFC054608B172B6FEE726
:101B400001461422204605F0ADF8736C43F480235F
:101B50007364736C03F480230793079B6C4BDB68FF
:101B60006C4B83F81A534FF080621A604FF6FF7384
:101B7000238040F2E733C4E902356560664D2146B3
:101B8000284602F083FF2B6843F080032B6004F0AB
:101B90003BFB2B6843F001032B60EB6843F0010330
:101BA000EB604FF4FA6001F041F9FEF78FFE002878
:101BB0004CD1FEF711FF5948594D04F023FFFFF7B0
:101BC00085F9FEF78DFD574804F01CFF002208211F
:101BD0004B4801F021FC0A2001F028F901220821DC
:101BE000474801F019FC4FF4FA6001F01FF94E4923
:101BF0004E4800F0BFFF4E494E4800F0C9FF4E4925
:101C00004E4800F0D7FF4E4A1068516808AB03C336
:101C100008A9084601F01DF8284601F05FF86B7A24
:101C200000932B7AEA79A979464804F083FE0023D1
:101C300050220121184600F047FB48B1424804F009
:101C4000E1FE4FF47A7001F0F1F8FAE73F48B3E7AC
:101C500000F0CCFB012807D03D4804F0D3FE4FF440
:101C60007A7001F0E3F8FAE73A48DFF8F490254E8D
:101C700004F0C8FEFFF738FDFFF708FEFFF794FDFC
:101C80004FF4427000F0F8FD054601F0C9F8172D39
:101C9000074601D01C2D16D1D9F8003073B1FB1ABC
:101CA00042F21072934209D900212B4804F042FEFF
:101CB000002000F0CBFA0023C9F80030172D51D0D6
:101CC0001C2D00F09C82002D40F0A380284600F0DF
:101CD000BDFA012001F0AAF82B4650220121284626
:101CE00000F0F2FA002840F0918200F07FFB01281A
:101CF00000F08F801948B4E000380240000802402C
:101D00000000024000040240800200200030014038
:101D100000ED00E000E100E000480140B596000859
:101D200000000020CD960008B1050008A1050008BC
:101D3000F9050008D1050008E9050008C1050008FB
:101D400094950008E196000806970008F6870008B9
:101D50001F9700082F970008549700087B9A0008E7
:101D6000A4030020D9F800300BB9C9F80070002591
:101D70004FF47F72294615A8256004F093FF01F007
:101D80004FF8DFF894A3074640F2FF38A8EB0502AE
:101D9000611992B2002000F02DFC01B200293CDD57
:101DA000284485B201F03CF8032D0746EED9281FE0
:101DB00004225146204404F065FF00285FD100232F
:101DC000BA496355204605F013F800286CD1204627
:101DD000FEF7A0FC002867D1FEF7CEFC01F020F84A
:101DE000074642F2082000F047FD054642F208305F
:101DF00000F042FD00EB052542F2084000F03CFDFA
:101E0000804642F2085000F037FD00EB08239D4267
:101E10003AD1012001F00AF82CE72CD101F000F8AA
:101E200040F6B833C01B984221D9A14804F0EAFD1E
:101E3000002DC4D1002000F00FFB0023C9F80030B2
:101E400000F0EEFF05464FF4427000F015FD00284B
:101E5000DFD000F0E5FF401BB0F57A7F40F2CB8188
:101E6000944804F0CFFD002000F0F0F9D1E7012004
:101E700000F0DCFF8AE7904804F05CFDD8E740F210
:101E8000FE339D4282D9D3E700F0CAFFC01BB0F5F4
:101E9000FA7FBED84FF4427000F0EEFC1728B8D19C
:101EA000012000F0C3FF9CE78449DFF824A220460C
:101EB00004F09EFF002868D0814B824982480022AE
:101EC0001A7005F01EF8814804F09CFD804F002533
:101ED000804A2B4614210AA804F09CFD7E4A2B461A
:101EE00014210FA804F096FD0AA9204604F080FFF3
:101EF0008346002800F05381714B93F80080B8F1BD
:101F0000020F40F00B81032D68DD0135082D07F12C
:101F10000107DDD16A4B71491B7800936C4A704B05
:101F200009680020FEF7B4FD0020FFF70BFC00F06D
:101F300077FF074642F2082000F09EFC054642F279
:101F4000083000F099FC00EB052542F2084000F053
:101F500093FC804642F2085000F08EFC00EB082310
:101F60009D423FF467AF00F05BFFC01BB0F57A7F86
:101F70003FF660AF4FF4427000F07EFC17287FF40C
:101F800059AF012000F052FFD4E75649204604F033
:101F90002FFF054640B14A4B53494B4801221A7066
:101FA00004F0AFFF51488FE75149204604F020FF6D
:101FB00000288BD0424B02221A705746A846E8B23E
:101FC00007F8018B00210135FEF71CFE082DF6D124
:101FD00048493D4804F095FF474875E7397801299D
:101FE0004FF000031ED04FF0010B022D8AF8003095
:101FF0008AF801308AF802308AF8033087F800B096
:102000003BD0032D45D05D4522D12A462946304696
:1020100001F002FA002330461A46414601F0FCF96D
:10202000364821E01A463B70304601F0F5F90023AE
:102030001A464146304601F0EFF98021304A2248E5
:102040002B4604F0E7FC2F48294604F073FC5CE7BC
:102050001A465946304601F0DFF9002330461A4649
:10206000414601F0D9F9284804F0CCFC274A2B4618
:102070008021154804F0CEFC47E71A465946304601
:1020800001F0CAF930465A46294601F0C5F9204800
:10209000EAE75A465946304601F0BEF930465A46FC
:1020A000414601F0B9F91B48DEE700BFA0970008E0
:1020B00081970008559A00088F970008B19700088B
:1020C000D8020020C2970008D9020020D897000843
:1020D0005903002064980008739800081800002035
:1020E0001C000020EF9700080098000816980008D0
:1020F0002D9800083B9800084F980008E7980008C2
:1021000083980008A3980008C8980008449900081C
:102110000699000825990008D6860008B8F1010F35
:102120005FFA85FB1FD14FF000084246454507D0B6
:1021300000215FFA88F00AF80820FEF763FD00220C
:1021400008F10108B8F1080FF0D1012139705846A3
:10215000FEF758FD8021314A31482B4604F05AFCE5
:102160003048294671E73978B1FA81F14909397067
:102170005846FEF747FD3B7843B180212A4A28485C
:102180002B4604F047FC294829465EE78021284A6F
:1021900023482B4604F03EFC2648294655E70FA964
:1021A000204604F025FE00283FF4AFAE224B93F802
:1021B0000080B8F1020F10D1032D0EDC5A46012128
:1021C000304687F800B001F027F95A4641463046BC
:1021D00001F022F9194A2B464AE700213970E8B28A
:1021E000FEF710FD8021154A0D482B4604F012FC25
:1021F0001348294629E7012000F018FE23E60020B5
:1022000000F02AF90023C9F8003002E60D4804F076
:10221000F9FB4FF47A7000F009FEFAE562990008C4
:10222000D902002082990008A5990008C5990008E4
:10223000E8990008099A0008D80200202D9A0008A1
:10224000409A00089996000872B6FEE70828F8B58B
:1022500004462DD8470107F1080607F584771021B9
:10226000384600F037FB384600F006FB05460028EC
:10227000F9D11F2106F5007000F02CFB0E49012357
:10228000A3400A88DB439BB21A400A800B4A11889C
:102290000B4013800A4B23F814500A4B1D5506F5CA
:1022A0004076304600F0E8FA0028FAD10120F8BD67
:1022B0004FF0FF30FBE700BFC2030020C003002047
:1022C000B0030020A803002008282DE9F3410446AC
:1022D000884617461D467BD8012905D08B1E022B48
:1022E00010D96FF004000AE004220DEB02014FF454
:1022F000706000F021FB019B23B96FF0020002B077
:10230000BDE8F081680757D42DB1B8F1010F50D066
:10231000B8F1020F53D020466601FFF797FF083649
:1023200025F00F0148EA0101304600F0D3FA6FB9F9
:10233000294A17887B1C9BB24FF6F0718B4209BF6C
:102340004FF44043138013804FF6EF77390A06F5B8
:10235000806000F0BFFAF9B206F5A06006F580775C
:1023600000F0B8FA0121384600F0B4FA384600F01F
:1023700083FA0028FAD119490123A3400A88DB43D4
:102380009BB205F001051A40A5402A430A80144A71
:1023900011880B401380134B23F81400124B18556F
:1023A00006F54076304600F067FA0028FAD060B2B1
:1023B000A5E715F0210FAED16FF005009FE7A90644
:1023C00001D52A06F8D5EB06A5D515F0800FF2E762
:1023D0004FF0FF3093E700BFDC000020C203002075
:1023E000C0030020B0030020A8030020082870B517
:1023F000054627D844010834204600F03DFA00F095
:102400000F00012821D104F54076304600F034FA5F
:1024100013281DD104F580740221204600F05AFAD9
:10242000204600F029FA0028FAD1304600F024FABC
:10243000142801D1012004E02846FFF707FF6FF0C0
:10244000030070BD4FF0FF30FBE76FF00400F8E7CA
:102450006FF00200F5E70000082870B5054634D893
:1024600044010834204600F007FA00F00F0001286C
:102470002ED104F580760821304600F02BFA304644
:1024800000F0FAF90028FAD1134901220B88AA407A
:1024900023EA02030B80114B1B882B41DA0713D46C
:1024A00004F5407604F50074304600F0E5F908B90B
:1024B000012009E0204600F0DFF90307F4D52846A3
:1024C000FFF7C4FE6FF00C0070BD4FF0FF30FBE76C
:1024D0006FF00400F8E700BFC0030020C203002033
:1024E00008282DE9F84F07468946164675D8450154
:1024F0000835284600F0C0F900F00F0001286FD120
:10250000002E70D005F5407A504600F0B5F9172836
:1025100001D01C2834D1DFF8D880B8F800303B4116
:10252000D90712D505F50074204600F0A5F9C206BA
:1025300029D51021204600F0CDF9B8F8003001224D
:10254000BA4023EA0203A8F8003005F5F85000F07D
:1025500093F9800280B2B04228BF3046012604467B
:10256000BE40384600F05CFA8346504600F084F9DD
:1025700017281E4B12D01C2810D03846FFF766FED5
:102580006FF0060002E0030702D40020BDE8F88FD8
:102590003846FFF75BFE6FF00C00F7E71A8832420F
:1025A00018D0A345F1D349463846224605F5807533
:1025B00000F078FA2021284600F08CF9284600F037
:1025C0005BF90028FAD1B8F800301E43A8F8006083
:1025D0002046DBE7A345C4D3E5E74FF0FF30D5E75E
:1025E0006FF00400D2E76FF00D00CFE7C2030020C8
:1025F000C00300202DE9F04F85B008280646019160
:1026000090465ED845010835284600F035F900F0BF
:102610000F09B9F1010F57D1B8F1000F57D005F5E7
:10262000F05000F029F905F540730293DFF8A4B0EB
:1026300005F5F853044609FA06F90393304600F00D
:1026400010FA0746029800F017F9172814D01C2832
:102650000AD1DFB9304600F0E3F98246039800F072
:102660000BF9BAEB802F07D13046FFF7EFFD6FF083
:10267000060005B0BDE8F08FBBF8002012EA090F94
:1026800002D01FB93846F4E7002FD7D0A402A4B275
:10269000444528BF4446BC4228BF3C46A4B20199E9
:1026A0003046224605F5807500F029FA402128467B
:1026B00000F010F9284600F0DFF80028FAD1204693
:1026C000D7E74FF0FF30D4E76FF00400D1E76FF0A9
:1026D0000D00CEE7C203002082B00C4B0021009118
:1026E0005A6C42F480425A645A6C02F4804200925E
:1026F000009A01911A6C42F080521A641B6C03F02C
:1027000080530193019B02B0704700BF0038024024
:1027100010B5044688B01422002103A804F0C2FAC0
:102720002268144B9A4222D103F58433002101918F
:102730005A6C114842F480525A645A6C02F4805226
:102740000192019A02911A6B42F001021A631B6B0B
:1027500003F001030293029BE02202230321CDE94F
:1027600003230523CDE9061303A900F08FFD08B06C
:1027700010BD00BF003001400000024008B501F06C
:1027800007FEFEE7FEE7FEE7FEE7FEE7704770475D
:10279000704700F039BB0000084B1A69D2070CD50E
:1027A00007496FF001021A614B691A04DB4302F01A
:1027B000005203F4005313438B61704700480140FB
:1027C00000080240014800F0F1BF00BFF81A0020E5
:1027D0000120704708B504F067FB162303604FF033
:1027E000FF3008BD08B504F05FFB16230360FEE769
:1027F00070B50D4614460E46731B9C4201DC204604
:1028000070BDAFF3008006F8010BF5E74FF0FF3025
:1028100070474FF400534B60002070470120704711
:10282000002070470B4A116810B5034609B90A49E0
:102830001160106809490A4C0344091B8B4206D9F0
:1028400004F032FB0C2303604FF0FF3010BD136027
:10285000FCE700BFC4030020282100200000012065
:1028600000040000034AD2F8883043F47003C2F831
:102870008830704700ED00E073B5154CE3680546FD
:10288000984763699847636AC5F30740C5F307260D
:10289000EDB20BB1A36A8BB9236A9847236A30461D
:1028A0009847236A28469847E3699847A3690546ED
:1028B000984723699847284602B070BD8DF80400F8
:1028C0008DF805608DF80650032101A89847EBE7C5
:1028D000E4000020F7B5174CE36805460E4698471C
:1028E00063699847A36A45F00407C5F30740FFB240
:1028F000C5F3072583B9236A9847236A2846984772
:10290000236A38469847236A30469847A369984710
:102910002369984703B0F0BD04218DF804008DF8B9
:1029200005508DF806708DF807600DEB0100984793
:10293000ECE700BFE40000202DE9F3411A4CE36806
:1029400005460E461746984763699847636AC5F37C
:102950000740C5F30728EDB20BB1A36AB3B9236AE8
:102960009847236A40469847236A28469847374441
:10297000B74206D1A36998472369984702B0BDE8DA
:10298000F081E369984706F8010BF1E78DF8040040
:102990008DF8058001A88DF8065003219847636AD9
:1029A000394630469847E5E7E40000202DE9F34139
:1029B0001A4CE36805460F46904698476369984766
:1029C000A36A45F00406C5F30740F6B2C5F3072530
:1029D000B3B9236A9847236A28469847236A304642
:1029E0009847B844B84506D1A369984723699847E2
:1029F00002B0BDE8F081236A17F8010B9847F1E7B0
:102A00008DF804008DF8055001A88DF806600321AB
:102A10009847A36A414638469847E5E7E400002016
:102A2000F8B54401083404F50057002504F50454B2
:102A30003846FFF721FF06022046FFF71DFFB6B21A
:102A40000644B6B24EB13846FFF716FF05022046DF
:102A5000FFF712FFADB20544ADB2B542E8D128464A
:102A6000F8BDF8B54401083404F51857002504F5FD
:102A70001C543846FFF700FF06022046FFF7FCFE15
:102A8000B6B20644B6B24EB13846FFF7F5FE0502BF
:102A90002046FFF7F1FEADB20544ADB2B542E8D134
:102AA0002846F8BD2DE9F843894614462AB3850027
:102AB0006F1CFF0007F510584046FFF7DDFE07F5D5
:102AC000145706463846FFF7D7FE00EB062086B2BD
:102AD000023530022246494600EBC500FFF766FF8B
:102AE000A1198CB24046C1F30721FFF7F3FEE1B212
:102AF0003846BDE8F843FFF7EDBEBDE8F8832DE9A1
:102B0000F843894614462AB385006F1CFF0007F579
:102B100020584046FFF7B0FE07F5245706463846D2
:102B2000FFF7AAFE00EB062086B2033530022246EC
:102B3000494600EBC500FFF7FFFEA1198CB24046E5
:102B4000C1F30721FFF7C6FEE1B23846BDE8F843FE
:102B5000FFF7C0BEBDE8F88370470078704701708A
:102B60007047002070477047704770477047704744
:102B70007047000000B109B902480349034BC3E99B
:102B8000050170476F2B0008712B0008E40000203E
:102B9000054B1A88920500D4FEE700B109B9034835
:102BA0000349C3E907017047E4000020632B0008D4
:102BB000672B0008054B1A88920500D4FEE700B188
:102BC00009B903480349C3E909017047E40000203B
:102BD000692B00086B2B00087FB5062204A94FF46F
:102BE0001060FFF7A9FE04220DEB02014FF4807084
:102BF000FFF7A2FE02A904224FF4A060FFF79CFE9B
:102C0000042203A94FF47060FFF796FE8021002094
:102C1000FFF760FE0020FFF72FFE04A906224FF405
:102C20001060FFF7C3FE04220DEB02014FF4807029
:102C3000FFF7BCFE02A904224FF4A060FFF7B6FE26
:102C4000042203A94FF47060FFF7B0FE07B05DF8EF
:102C500004FBF8B505460C46FFF7BEFFA5B195F994
:102C60000030102B19DC2A46E91D8A420FD1013DA4
:102C700041F6087642F20807304615F8011F203663
:102C8000FFF728FEBE42F7D154B90020F8BD12F874
:102C9000010F03445BB2102BE7DD4FF0FF30F5E787
:102CA00094F90030102BF8DC2246E11D91420DD141
:102CB000013C41F6086541F60876284614F8011FE4
:102CC0002035FFF707FEB542F7D1DEE712F8010F16
:102CD00003445BB2102BE9DDDFE7000010B50146CD
:102CE000044606224FF41060FFF760FE042204F150
:102CF0000E014FF48070FFF759FE042204F10A011F
:102D00004FF4A060FFF752FE0422A11D4FF4706043
:102D1000FFF74CFE064BA27C1A70E27C5A70227DB3
:102D20009A70627DDA70034BA27D1A7010BD00BFED
:102D3000C9030020C8030020DFF834D0FFF792FD5C
:102D40000C480D490D4A002302E0D458C450043306
:102D5000C4188C42F9D30A4A0A4C002301E01360DC
:102D60000432A242FBD304F0A5F8FEF76FFE7047D1
:102D7000000001200000002060020020BCA100082B
:102D80006002002028210020FEE7000038B50E4B2D
:102D90001A784FF47A73B3FBF2F30C4A05461068C5
:102DA000B0FBF3F000F0A8F8044658B90F2D09D88D
:102DB000024629464FF0FF3000F05EF8044B2046F3
:102DC0001D6038BD0120FCE710010020E00000205C
:102DD0001401002008B50B4B1A6842F400721A6007
:102DE0001A6842F480621A601A6842F480721A60AB
:102DF000032000F02FF80F20FFF7C8FFFFF76CFC4F
:102E0000002008BD003C0240034A044B11681B78B7
:102E10000B441360704700BFD00300201001002056
:102E2000014B1868704700BFD003002038B5044636
:102E3000FFF7F6FF631C1CBF054B1B78054618BF48
:102E4000E418FFF7EDFF431BA342FAD338BD00BFE0
:102E5000100100200749CA6822F4E062030212044C
:102E600003F4E063120C134343F0BF6343F40033F5
:102E7000CB60704700ED00E0164B30B5DC68C4F362
:102E80000224C4F10703251D042B28BF0423062DAB
:102E90004FF0FF358CBF033C002405FA03F321EA11
:102EA0000303A54022EA0502A340002843EA0203E7
:102EB000ACBF00F16040084A4FEA0313B8BF00F00E
:102EC0000F00DBB2AABF00F56140135480F8003355
:102ED00030BD00BF00ED00E014ED00E0002807DB8E
:102EE000044A4109012300F01F00834042F82130C9
:102EF000704700BF00E100E00138B0F1807F0BD2E5
:102F00004FF0E023054A5861F02182F82310002099
:102F1000072298611A6170470120704700ED00E0B8
:102F2000094910B50C6924F440740C610C6944F42F
:102F300040740C610C6944F001040C610260BFF341
:102F40006F8F436010BD00BF003C0240074B1A6901
:102F500022F440721A611A6942F400721A611A6905
:102F600042F001021A610160704700BF003C02405C
:102F7000074B1A6922F440721A611A6942F480728E
:102F80001A611A6942F001021A610180704700BF9C
:102F9000003C0240204BDA68D00606D51F49CA69BA
:102FA00042F01002CA611022DA60DA68910606D592
:102FB0001A49CA6942F00802CA612022DA60164B37
:102FC000DA68520606D51549CA6942F00402CA6198
:102FD0004022DA60DA68100606D51049CA6942F064
:102FE0000202CA618022DA600B4BDA68D10507D58C
:102FF0000A49CA6942F00102CA614FF48072DA607C
:10300000DA68920706D50549CA6942F02002CA610A
:103010000222DA60704700BF003C0240D403002067
:10302000064B1A69002ABFBF054A5A6002F188326E
:103030005A60BABF1869C00F00207047003C0240B8
:1030400023016745034A136943F0004313610020DD
:10305000704700BF003C0240114B70B5002204468F
:10306000DA61FFF7DDFE0F4D0646EB68DA030CD49C
:10307000EB68DB0744BF0123EB60E86810F4F970EC
:1030800007D0FFF787FF012003E0611CEDD00CB9EA
:10309000032070BDFFF7C4FE801BA042E5D9F7E70F
:1030A000D4030020003C02402DE9F0411F4E984619
:1030B000337E012B07460D46144635D001234CF2D2
:1030C00050303376FFF7C8FFB0B9CFB9184B1A6943
:1030D00022F440721A611A691A611A69E4B242F064
:1030E00001021A612C704CF25030FFF7B5FF104A04
:1030F000136923F00103136100233376BDE8F081E7
:10310000012F04D1A1B22846FFF732FFEBE7022FCF
:1031100004D121462846FFF719FFE4E7224643463B
:103120002846FFF7FDFEDEE70220E7E7D403002094
:10313000003C0240074B1A6922F440721A611A6976
:1031400042F004021A611A6942EA002242F4803213
:103150001A617047003C02400D4B1A6922F440721C
:103160001A611A69022994BF09024FF440710A4397
:103170001A611A6922F0F8021A611A6942EAC0005B
:1031800040F0020018611A6942F480321A617047F7
:10319000003C0240144B1A6891050FD51A6822F4BE
:1031A00000721A601A6842F400621A601A6822F407
:1031B00000621A601A6842F400721A600A4B1A68B8
:1031C00052050FD51A6822F480621A601A6842F418
:1031D00080521A601A6822F480521A601A6842F407
:1031E00080621A60704700BF003C02402DE9F8433E
:1031F000DFF8948098F81830012B05460F463FD031
:1032000001234CF2503088F81830FFF725FF0446B0
:10321000A0B94FF0FF333B602B68012B14D1287C01
:10322000FFF788FF4CF25030FFF716FF154A13697D
:1032300023F0040304461361FFF7ACFF002388F872
:1032400018302046BDE8F883AE68DFF83890D5E93D
:1032500002231344B342EFD9297C3046FFF77CFFA9
:103260004CF25030FFF7F8FED9F8103023F0FA0393
:10327000C9F8103010B13E600446DDE70136E6E7DC
:103280000224DEE7003C0240D40300202DE9F74F82
:10329000DFF880915D4A00230D6801249C4004EA18
:1032A0000506AC4340F0A3804D68032705F00304F6
:1032B0004FEA430807FA08FC671E012F6FEA0C0C5F
:1032C00034D8876807EA0C0ECF6807FA08F747EA90
:1032D0000E078760476827EA060EC5F300179F4070
:1032E00047EA0E074760C76807EA0C0E8F6807FABF
:1032F00008F747EA0E07022CC76019D14FEAD30A34
:1033000000EB8A0A03F0070BDAF820704FEA8B0B08
:103310004FF00F0E0EFA0BFE27EA0E0E0F6907FA9A
:103320000BF747EA0E07CAF8207001E0032CDAD148
:10333000076804FA08F407EA0C073C4315F4403F19
:10334000046054D000240194D9F8444044F48044EB
:10335000C9F84440D9F8444023F0030707F18047F7
:1033600004F4804407F59C37019403F0030C019C9E
:10337000D7F808E04FEA8C0C0F2404FA0CF42EEA7C
:10338000040E234CA04239D004F58064A04237D00B
:1033900004F58064A04235D004F58064A04233D0A7
:1033A00004F58064A04214BF0724042404FA0CF43A
:1033B00044EA0E04BC609468F74315F4801F0CBF08
:1033C0003C4034439460D46815F4001F0CBF3C406B
:1033D0003443D460546815F4003F0CBF3C40344380
:1033E00054601468ED0354BF3C403443146001330F
:1033F000102B7FF451AF03B0BDE8F08F0024D5E768
:103400000124D3E70224D1E70324CFE7003C0140A5
:1034100000000240003802400AB18161704709048F
:10342000FBE7F7B5044610B390F89534056803F050
:10343000FF021BB980F8942402F0FEFF0323B5F1CC
:10344000A04F84F8953404BF0023A371206801F0D5
:103450004BFC237C8DF80030251D95E80E0020687C
:1034600001F088FB014630B1022384F89534012530
:10347000284603B0F0BD206801F03CFC0028F3D1E1
:10348000267904F1140301270246C1B28E4203F1EA
:1034900024031BD8002104F515730A46C8B28642DE
:1034A00003F1240320D8237C8DF8003095E80E002A
:1034B000206801F09BFC05460028D5D101236074EB
:1034C000206884F8953401F0D5FFD1E723F80A0C81
:1034D00043E9072203F8237C03F8241C03F8202C7B
:1034E00043F8142C0130D0E743E9072203F8232CDA
:1034F00003F8240C03F8202C43F8142C0131CDE7F9
:1035000010B50446006894F89434012B15D00123BB
:1035100084F89434C3685B0606D5637B012B02BF35
:10352000836B43F48033836301F0D8FB206801F0A0
:1035300093FF002084F8940410BD0220FCE710B52E
:1035400090F89424012A04460AD0012280F8942499
:103550004174006801F070FF002084F8940410BDED
:103560000220FCE770B501F00F0606EBC60411F06F
:10357000800F05464FEA84044FF0240020D000FB62
:10358000065004F11401012429444475C2F30A02CF
:103590008A604A780E700B7102B14E83022B04BF11
:1035A00000234B7195F89434012B12D00123286825
:1035B00085F8943401F0DFFC002085F8940470BD98
:1035C00000FB065004F515710024294480F855428B
:1035D000DCE70220F3E710B5044601F00F0000EB32
:1035E000C00311F0800F4FEA83034FF0240215D07F
:1035F00002FB004203F114010123214453750870BA
:1036000094F89434012B12D00123206884F8943468
:1036100001F0F0FC002084F8940410BD02FB00428D
:1036200003F515710023214482F85532E7E70220A3
:10363000F3E770B501F00F05242404FB050104FB3A
:103640000504C4E998230023C4F8683284F855328D
:1036500084F85452164682790068012A01F51571E2
:1036600008BFC4F8706201F071FD002070BD01F068
:103670000F01242303FB0100D0F86802704770B5E6
:1036800001F00F05242404FB050104FB0504C4E933
:1036900008230023A36201236375257516468279EA
:1036A00000689A4201F1140108BF266301F04EFD43
:1036B000002070BD38B5037901F00F05AB42044618
:1036C0002BD311F0800F4FF024001DD000FB0541DB
:1036D00000FB054001231431437501238B700D70ED
:1036E00094F894249A421AD0206884F8943401F013
:1036F0004FFE2DB9A179206804F29C4201F00AFF27
:10370000002084F8940438BD00FB01431A4603F5F9
:103710001571002382F85532DFE70120F3E702201C
:10372000F1E738B5037901F00F029342044629D33B
:1037300002EBC20311F0800F4FEA83034FF0240025
:1037400017D000FB024003F114010123214443750B
:1037500000258D700A7094F89434012B14D0012345
:10376000206884F8943401F03EFE84F8945428468E
:1037700038BD00FB024003F515710023214480F899
:103780005532E5E70120F3E70220F1E701F00F03EE
:1037900003EBC3030A064FEA83034CBF03F1140192
:1037A00003F515710144006801F07ABC2DE9F04F72
:1037B000066889B00446304601F098FE0390002860
:1037C00040F05581206801F063FE002800F04F8131
:1037D000D6F808382068C3F30D23C4F8D43401F0B8
:1037E00057FE870748BF2268206842BF536903F02D
:1037F0000203536101F04CFEC00606F500652CD5AE
:103800002268936923F010039361D6F82080C8F3EF
:103810004343022B08F00F0740F02C8147F6F0736A
:1038200018EA030F14D0242303FB0747C8F30A192F
:10383000D7F860124A46304601F08AFDD7F8603268
:103840004B44C7F86032D7F868324B44C7F8683247
:103850002268936943F010039361206801F018FE19
:10386000010300F11981206801F012FE42030DD519
:10387000206801F019FE2746049006F5106B4FF002
:10388000000A049B2068002B40F0D381206801F0DF
:10389000FFFD002813DA6B6823F001036B6094F8D6
:1038A000CC34012B40F06B82002184F8CC142046EC
:1038B00000F0E9FA2268536903F00043536120687D
:1038C00001F0E6FD07050AD5AB68D80702D520460A
:1038D00002F022FE2268536903F4006353612068FA
:1038E00001F0D6FDC10433D56B68206823F00103D5
:1038F0006B60102101F02EFA207906F510634FF667
:103900007F31039A904200F23E82EB6943F001134B
:10391000EB61E37B002B00F05382D5F8843043F059
:103920000B03C5F884306B6C43F00B036B64D6F863
:103930000038206823F4FE63C6F8003804F29C4285
:10394000A17901F0E7FD2268536903F480535361C4
:10395000206801F09DFD820416D5206801F0CAFDA3
:10396000206801F0FDFAE071276800F009FDE279B6
:103970000146384601F042F9204602F0BAFD2268BD
:10398000536903F400535361206801F081FD03077C
:1039900007D5204602F0A9FD2268536903F0080309
:1039A0005361206801F074FD070600F1148220685D
:1039B00001F06EFDC0020CD5A04606F51269012784
:1039C0002379BB4200F220822268536903F48013FA
:1039D0005361206801F05CFD81022BD594F804E06E
:1039E000234606F532614FF0010CE6451DD993F8E8
:1039F0007C720868012F40F01D82002880F21A8234
:103A0000D4F8D42482EA1040C20700F1138283F86C
:103A10007B72B06940F08000B0617069000600F10F
:103A200009826B6843F400736B602268536903F486
:103A300000135361206801F02BFD410007D520469B
:103A400002F08EFD2268536903F0804353612068C1
:103A500001F01EFD42070AD523685D686B0702D599
:103A6000204602F081FD226853682B43536009B061
:103A7000BDE8F08F062B7FF4EBAE082204F29C41E8
:103A8000304601F065FC242303FB0747C8F30A18FE
:103A9000D7F868324344D9E6206801F0FDFC06F50A
:103AA00030680490A2460027049B2068002B3FF456
:103AB000DAAE049BDB0778D55FFA87FB594601F045
:103AC000FBFC10F0010F81461FD020680123C8F8CD
:103AD000083094F806C0016C00F5306303EB47131F
:103AE000BCF1010F9A6840F08E8012F0080F07D0E9
:103AF000B148814209D9120407D54FF4004203E0CE
:103B000012F0200F5AD020229A6019F0080F21D00D
:103B10000823C8F808302368A7491A6C03F53063F6
:103B200003EB47138A42986804D9010444BF4FF459
:103B3000004098602046059202F0C0FC059A9E491C
:103B40008A4207D9A179012904D1206804F29C4254
:103B500001F0E0FC19F0100F1CBF1023C8F808306A
:103B600019F0020F14D073691A0642BF6B6843F450
:103B700080636B609AF85732012B06D100238AF8D4
:103B800057325946204602F0E3FC0223C8F80830B9
:103B900019F0200F1CBF2023C8F8083019F4005F6B
:103BA0001CBF4FF40053C8F80830049B5B08013772
:103BB000049308F120080AF1240A75E712F0280F8F
:103BC000A3D1DFF8F4C1614501D9120495D41A6973
:103BD000DAF87432C2F312029B1ACAF868326FB96B
:103BE000D4F864222AB904F29C42012101F092FC2B
:103BF00004E0D4F860221A44C4F8602259462046F2
:103C000002F062FC81E7DFF8B4C1614507D111041D
:103C10003FF573AF9006F1D520229A60EEE7002FB2
:103C2000ECD1D4F86432002BE8D104F29C4239463E
:103C3000DCE7049BDB0740F199805FFA8AF31946C1
:103C4000059301F042FC10F0010F80461FD06B6B12
:103C500001210AF00F0201FA02F223EA02036B6368
:103C6000CBF80810A17901290DD1D7E90723134416
:103C70003B62BAF1000F06D1636A23B9206804F2EF
:103C80009C4201F047FC0599204602F026FC18F002
:103C9000080F1CBF0823CBF8083018F0100F1CBF0A
:103CA0001023CBF8083018F0400F1CBF4023CBF88E
:103CB000083018F0020F0FD05146304601F04AF894
:103CC000FB7D012B05D100230599FB75204602F0F1
:103CD00043FC0223CBF808302368069318F0800FCA
:103CE00044D0D7E909329A4240D8A3EB0208FB69D5
:103CF000984528BF9846069B03F5106308F1030812
:103D000003EB4A134FEA98080793079B996989B216
:103D10004145D7E9093227D393420BD8069B0AF0D5
:103D20000F00D3F834280121814022EA0102C3F8B0
:103D300034281BE0A3EB0209FB69059A0698994514
:103D400028BF9946A3790093396A1FFA89F301F0D5
:103D5000E9F93B6A4B443B62BB6A09F103084B44F7
:103D60004FEA9808BB62D0E79342D7D9049B5B081F
:103D70000AF1010A049324370BF1200B81E5204658
:103D800002F0E2FB96E599601A6822F400121A60CC
:103D9000C3F80812D3F8002222F40012C3F800225C
:103DA000D3F8002242F00062C3F80022039A0132E5
:103DB00003922033A5E500BF0A30544F0A31544F17
:103DC0006B6943F4005343F02B036B612B6943F0A1
:103DD0000B032B61ABE5B36923F08003B3610127CB
:103DE00004F257284FF024092379BB427FF6DFAD58
:103DF00009FB07F318F80330012B03D1F9B2204671
:103E0000FFF7C4FC0137EFE798F83C30D9F8002001
:103E1000012B09D1002A07DA67F07F0188F83B30CF
:103E2000C9B22046FFF7B2FC013708F1240809F1B6
:103E30002009C5E50CF1010C24332031D5E500BF84
:103E4000036870B5586A120419B902439A620020D7
:103E500070BD9C6A4E1E00EB14400024B44205D392
:103E60003F3103EB810302435A60F0E704F1400560
:103E700003EB850501346D6800EB1540EEE7036840
:103E800000205962704770472DE9F341044640B362
:103E90000368DE0710D423689D075BD423681907E5
:103EA00000F19D8023685A0700F1BD80A369002BB3
:103EB00040F0248100202CE08D4B9A6802F00C0227
:103EC000042A07D09A6802F00C02082A0BD15B681A
:103ED000590208D5864B1B689A03DCD56368002B12
:103EE000D9D1012015E06368814DB3F5803F13D12E
:103EF0002B6843F480332B60FEF792FF7C4E05461F
:103F000033689B03C7D4FEF78BFF401B6428F7D9A7
:103F1000032002B0BDE8F081B3F5A02F04D12B68D7
:103F200043F480232B60E3E72A6822F480322A607E
:103F30002A6822F480222A60002BDDD1FEF770FF70
:103F400006462B689F03A6D5FEF76AFF801B6428F0
:103F5000F7D9DDE7664B9A6812F00C0F07D09A6824
:103F600002F00C02082A11D15B685D020ED4604A8F
:103F70001368990702D5E368012BB2D11368216950
:103F800023F0F80343EAC103136087E7E268594B63
:103F9000B2B101221A60FEF743FF554D06462B6869
:103FA0009B0707D52B68226923F0F80343EAC20375
:103FB0002B6073E7FEF734FF801B0228EFD9A7E7D9
:103FC0001A60FEF72DFF4A4E054633689F077FF5BE
:103FD00065AFFEF725FF401B0228F6D998E7626916
:103FE000444B82B10122C3F8802EFEF719FF404EE8
:103FF0000546736F9B073FF555AFFEF711FF401B5A
:104000000228F6D984E7C3F8802EFEF709FF384E60
:104010000546736F9F077FF545AFFEF701FF401B15
:104020000228F6D974E7324B1A6C12F0805228D16C
:1040300001921A6C42F080521A641B6C03F0805398
:104040000193019B01272C4D2B68D8051BD5A36834
:10405000274D012B27D12B6F43F001032B67FEF770
:10406000DFFE234E054641F28838336F9A0739D573
:10407000002F3FF41BAF1E4A136C23F080531364D0
:1040800014E70027DFE72B6843F480732B60FEF70B
:10409000C7FE06462B68D905D9D4FEF7C1FE801BA2
:1040A0000228F7D934E7052B04D12B6F43F0040322
:1040B0002B67D0E72A6F22F001022A672A6F22F0CD
:1040C00004022A67002BCAD1FEF7AAFE41F2883803
:1040D00006462B6F9B07CBD5FEF7A2FE801B404503
:1040E000F7D915E7FEF79CFE401B4045BDD90FE709
:1040F000003802400000474200700040374DAA6877
:1041000002F00C02082A3ED0022B354B4FF0000281
:104110001A662BD1FEF784FE06462B6899011FD440
:10412000D4E907321343626A43EA8213E26A43EA3C
:104130000263A26A5208013A43EA02436B60284BC9
:10414000264D01221A66FEF76BFE04462B689A0183
:104150003FF5B0AEFEF764FE001B0228F6D9D7E6A5
:10416000FEF75EFE801B0228D7D9D1E6FEF758FE87
:1041700004462B689B017FF59DAEFEF751FE001BA8
:104180000228F6D9C4E6012B3FF4ABAE6B68E269B6
:1041900003F4800191427FF4A4AE216A03F03F0250
:1041A0008A427FF49EAE616A47F6C0721A40B2EB53
:1041B000811F7FF496AEA26A520803F44031013A9F
:1041C000B1EB024F7FF48DAEE26A03F07063B3EBA4
:1041D000026F14BF012000209BE600BF00380240A0
:1041E00000004742014B0122DA6470470000474259
:1041F000134908B58B6803F00C03042B1CD0082B63
:104200001CD14A684B68496813F4800314BF0D48F9
:104210000D48C1F3881118BF002302F03F02A1FB33
:104220000001FCF745F8064B5B68C3F3014301331B
:104230005B00B0FBF3F008BD0248FCE70248FAE778
:104240000038024040787D010024F4002DE9F0415F
:104250000D46044610B90120BDE8F081434B1A68B1
:1042600002F007028A4228D321688F072DD4C8079D
:1042700040D43E4B1A6802F00702AA4265D8226871
:1042800051076BD4130707D5394A2169936823F482
:10429000604343EAC1039360FFF7AAFF344B354AFA
:1042A0009B68C3F30313D35CD840334B1860334B84
:1042B0001868FEF76BFD0020CEE7CAB21A701B68C3
:1042C00003F007038B42C6D1CEE7294B11F0040F50
:1042D0001EBF9A6842F4E0529A600E0742BF9A6885
:1042E00042F460429A609A68A06822F0F0020243A9
:1042F0009A60BCE762681E4B012A1CD11B6813F44C
:10430000003FA8D01A4EB36823F003031343B360F1
:10431000FEF786FD41F288380746B368626803F00D
:104320000C03B3EB820FA4D0FEF77AFDC01B40450F
:10433000F3D9032090E7911E01291B6802D813F0DE
:10434000007FDEE713F0020FDBE7EAB21A701B68AA
:1043500003F00703AB427FF47EAF90E70449E068C7
:104360008B6823F4E05303438B608BE7003C0240EF
:10437000003802405E9F0008E00000201401002089
:10438000014B1868704700BFE00000207047000034
:1043900010B5044CE3681B0603D5FFF7F7FF802335
:1043A000A37310BD003802402DE9F3471F4689462C
:1043B00090460446FEF734FD0A9D3D442D1AFEF753
:1043C0002FFD264B1E68C6F3CB366E438246019600
:1043D0002268936839EA03030CBF01230023434595
:1043E00001D100202EE07B1CF3D0FEF719FDA0EBDD
:1043F0000A00A84229D323685A6822F0E0025A60D2
:104400006268B2F5827F0AD1A268B2F5004F02D08D
:10441000B2F5806F03D11A6822F040021A60A26AD6
:10442000B2F5005F07D11A6822F400521A601A68C8
:1044300042F400521A60012384F85130002384F8BA
:104440005030032002B0BDE8F087019B1BB1019BF7
:10445000013B0193BCE71D46BAE700BFE000002026
:10446000F0B585B00B4600920E4617460221012298
:104470000446FFF799FF054628B1636D43F020031A
:104480006365032515E0124B1868124BB0FBF3F07F
:104490004FF47A73584363680390B3F5827F0BD16E
:1044A000009733462A4680212046FFF77DFF0028EB
:1044B000E3D1284605B0F0BD039B002BF9D0039B48
:1044C000013B039323689B681B06F5D4F1E700BF0B
:1044D000E000002000366E0137B50B464168B1F5AB
:1044E000827F044608D0009201210022FFF75CFF82
:1044F000D0B9002003B030BD8168B1F5004F02D0C3
:10450000B1F5806F07D125682868B1F5806F20F07C
:104510004000286004D00092802100222046E5E778
:10452000009201210022F9E7636D43F020036365E7
:104530000320DFE710B50446002855D0436A002B5E
:104540004ED14268B2F5827F00D0C3610023A362DE
:1045500094F8513003F0FF0223B984F8502020462C
:10456000FEF7D6F82168A068A269022384F85130CA
:104570000B6823F040030B60636800F4044003F40D
:1045800082730343E06800F400600343206900F095
:1045900002000343606900F00100034302F400706D
:1045A0000343E06900F038000343206A00F0800014
:1045B0000343A06A00F4005003430B60636A120CCB
:1045C00003F0100302F004021A434A60CB6923F49B
:1045D0000063CB6100200123606584F8513010BD79
:1045E0000023C0E90433B1E70120F8E72DE9F743E0
:1045F00004461F460D469046FEF712FC94F85130D3
:10460000012B8146D8B240F09F80002D74D0B8F1C4
:10461000000F71D094F85030012B00F095800323E7
:1046200084F8513000236365C4E91033A4F8368060
:10463000A363A387E387A368266884F85000B3F5D3
:10464000004F2563A4F8348007D1336823F040037A
:104650003360336843F4804333603368E2685B0659
:104660005EBF336843F040033360B2F5006F6368A8
:1046700045D113B1B8F1010F07D135F8023BF36012
:104680002563E38E013B9BB2E386E38E9BB2D3B9F5
:104690004A4639462046FFF7E3FE002851D1A36879
:1046A00033B901932368DA6801929B680193019BF7
:1046B000012384F85130606D0023C01A84F8503013
:1046C00018BF012018E022689368980705D5236B6E
:1046D00033F8021BD1602363D3E7FEF7A1FBA0EB05
:1046E0000900B842D1D3791CCFD0012384F85130CE
:1046F000002384F85030032003B0BDE8F08313B1E9
:10470000B8F1010F08D12B783373236B0133236386
:10471000E38E013B9BB2E386E38E9BB2002BB7D0C6
:1047200023689A68920703D5226B12781A73ECE714
:10473000FEF776FBA0EB0900B842EDD37B1CEBD073
:10474000D3E720236365AAE70220D5E72DE9F743E5
:1047500004460D4691461E46DDF82880FEF760FBB4
:1047600094F851306268012B0746D9B20AD0B2F5ED
:10477000827F40F0E580A368002B40F0E1800429AF
:1047800040F0DE80002D4BD0B9F1000F48D0002E54
:1047900046D094F85030012B00F0D280012384F8E9
:1047A000503094F85130C4F83890042B1CBF0523C6
:1047B00084F8513000236365C4E910332368E68729
:1047C000E6861968A687490658BF1968256358BF49
:1047D00041F04001A68658BF1960E168B1F5006F4D
:1047E00055D10AB1012E07D135F8022BDA60E38EDC
:1047F0002563013B9BB2E3860125E38E9BB28BB917
:10480000E38F9BB273B93A4641462046FFF728FE34
:10481000002800F0818020236365002384F8503055
:10482000012031E021688B689A070DD5E38E9BB299
:1048300053B145B1236B33F8022BCA602363E38E77
:10484000013B9BB2E38600258A6812F001020CD07E
:10485000E38F9BB24BB1A36BC96823F8021BA36320
:10486000E38F013B9BB2E3871546FEF7D9FAC01BE5
:104870004045C2D3B8F1FF3FBFD0012384F8513087
:10488000002384F85030032003B0BDE8F0830AB160
:10489000012E08D12A781A73236B01332363E38E28
:1048A000013B9BB2E38601252DE0226893689B07BC
:1048B0000ED5E38E9BB25BB14DB1236B1B781373A6
:1048C000236B01332363E38E013B9BB2E386002518
:1048D0002268916811F001010DD0E38F9BB253B1B2
:1048E000A36BD2681A70A36B0133A363E38F013B00
:1048F0009BB2E3870D46FEF793FAC01B404502D3F7
:10490000B8F1FF3FB9D1E38E9BB2002BCDD1E38F3D
:104910009BB2002BC9D176E7A36833B90193236812
:10492000DA6801929B680193019B012384F851305E
:10493000606D0023C01A84F8503018BF0120A3E72F
:104940000220A1E72DE9F7431E4690F85130012BD4
:10495000044689461746DDB204D00225284603B036
:10496000BDE8F0830029F9D0002AF7D04368B3F5F9
:10497000827F0BD183684BB9042380F851301346F2
:1049800000960A46FFF7E2FE0546E7E7FEF748FA1B
:1049900094F85030012B8046DFD0A268C4F83890DC
:1049A0000123002584F85030B2F5004F4FF0040386
:1049B00084F85130C4E9105565652368E787A787F7
:1049C0002563A586E58607D11A6822F040021A60A1
:1049D0001A6822F480421A601A6855065EBF1A6887
:1049E00042F040021A60E368F3B1E38F9BB2FBB17F
:1049F00023689A68D2073CD5DA68A36B23F8022BA8
:104A0000A363E38F013B9BB2E387EEE723689A68D9
:104A1000D0071ED5A26B1B7B1370A36B0133A3635E
:104A2000E38F013B9BB2E387E38F9BB2002BEDD179
:104A3000424631462046FFF74FFD18BB012384F85C
:104A40005130656D0023ED1A84F8503018BF0125F0
:104A500084E7FEF7E5F9A0EB0800B042E4D3711C4F
:104A6000E2D0012384F85130002384F8503003252C
:104A700074E7FEF7D5F9A0EB0800B042B5D3731C7C
:104A8000B3D0EEE720236365D8E70000234A03682C
:104A900090420ED0B0F1804F0BD0A2F57C429042F4
:104AA00007D002F58062904203D002F58062904206
:104AB00015D14A6823F070031343184A904219D065
:104AC000B0F1804F16D0A2F57C42904212D002F590
:104AD000806290420ED002F5806290420AD0104A65
:104AE000904207D002F58062904203D002F58062C6
:104AF000904203D1CA6823F44073134303608B6868
:104B0000C3620B888362054B984204BF0B69036341
:104B1000436943F0010343610020704700000140F6
:104B20000040014082B0002302460193019B013303
:104B30000193019BB3F1706F1AD81369002BF5DA5A
:104B40000A230193019B83B9136943F001031361A5
:104B5000019B01330193019BB3F1706F08D8106979
:104B600010F00100F4D102B07047019B013BE8E76F
:104B70000320F8E784B038B505AD85E80E009DF850
:104B80001930012B044627D1836B23F480338363D0
:104B9000C36823F4840323F04003C360C36823F491
:104BA0004013C3609DF82030012B02BFC36843F45B
:104BB0008013C360FFF7B6FF9DF81630012B07D1B5
:104BC000A36843F00603A360A36843F02003A36037
:104BD000BDE8384004B07047C36843F04003C36089
:104BE000FFF7A0FF9DF81D3023B9A36B43F480337A
:104BF000A363E1E7A36B23F48033F9E7022A4AD1E8
:104C0000274B284A0B44934239D9274B274A0B4458
:104C1000934236D9264AA1F57403A3F51053934263
:104C200031D9244AA1F18373A3F5E74393422CD3EE
:104C3000214B224A0B44934229D9214B214A0B4450
:104C4000934226D3204B214A0B44934223D3204A3C
:104C5000A1F1B773A3F5585393421ED31D4B1E4ABF
:104C60000B4493422CBF06230723C26822F47052E0
:104C7000C260C26842EA8323C360002070470F23EA
:104C8000F3E70E23F1E70D23EFE70C23EDE70B230A
:104C9000EBE70A23E9E70923E7E70823E5E700BF95
:104CA000405327FFFF340C00401E1BFF3F420F0004
:104CB0007F4F120020D6130060B6E5FE5FE31600BA
:104CC00000D3CEFE40771B00C05BB3FEC091210035
:104CD00020753800E05459FEE09C4100836843F0A1
:104CE0000103836000207047836823F00103836021
:104CF0000020704738B5C368012923F0C04305463A
:104D00000C46C36014D1C36843F00053C360002451
:104D10000A20FEF78BF86B69D90704F10A0402D464
:104D2000C82CF5D1C824A4F1C8035842584138BD55
:104D300071B9C36843F08043C3600A20FEF776F878
:104D40006B69DA0704F10A04EDD5C82CF5D1E9E75F
:104D50000120ECE782B0002302460193019B01335E
:104D60000193019BB3F1706F15D81369002BF5DA2D
:104D70008901002341F0200101931161019B01335E
:104D80000193019BB3F1706F05D8106910F02000FA
:104D9000F4D102B070470320FBE782B00023024643
:104DA0000193019B01330193019BB3F1706F13D801
:104DB0001369002BF5DA0023019310231361019B83
:104DC00001330193019BB3F1706F05D8106910F0A6
:104DD0001000F4D102B070470320FBE7D0F8003890
:104DE0001943C0F8001800207047000084B02DE976
:104DF000F843044609A880E80E0000239DF82460CB
:104E00009DF82E50194603F1400204EB8202013353
:104E10000F2B5160F7D104F50067002D6CD17B6832
:104E200043F002037B60A36B43F40013A363A36B03
:104E300023F40023A363A36B23F48023A363002341
:104E4000C4F8003E9DF82930012B5FD19DF8271052
:104E5000002959D12046FFF7C1FF10212046FFF756
:104E600079FF01462046FFF798FF0843C0B20023B0
:104E700000383B6118BF01207B6104F51062FB61C3
:104E800019464FF0904C4FF0006E4FF67F389E421F
:104E90003ED8002204F5306311464FF0904C4FF09D
:104EA000006E4FF67F38964245D83B6923F48073F5
:104EB0003B610023A3616FF0804363619DF826305E
:104EC0001BB9A36943F01003A361A269234B1343E9
:104ED000A3619DF82A301BB1A36943F00803A361C5
:104EE000012D01BFA36943F0804343F00403A36194
:104EF000BDE8F84304B07047A36B23F40013A36329
:104F0000A36B43F4002399E71946A3E70321A1E724
:104F1000D2F80090B9F1000F0BDA3BB9C2F800E00B
:104F200011610133C2F808802032B0E7C2F800C036
:104F3000F6E71160F4E7D3F80090B9F1000F0BDA4F
:104F40003AB9C3F800E019610132C3F80880203390
:104F5000A9E7C3F800C0F6E71960F4E700383C8021
:104F6000D0F8083813F0060004D013F0020F14BF75
:104F700002200F20704730B50C78012204F00F0595
:104F8000AA404D78012D00F5006300EB441019D1C3
:104F9000DD692A43DA61D0F800391A0410D48A682E
:104FA000D0F80059C2F30A030A792B4343EA82433B
:104FB00043EA845343F0805343F40043C0F800397C
:104FC000002030BDDC6944EA0242DA61D0F8003BDF
:104FD0001B04F5D48B68D0F8002BC3F30A031343EA
:104FE0000A7943EA824343F0805343F40043C0F814
:104FF000003BE5E710B50A784978012900EB421338
:1050000000F5006002F00F0222D1D3F80019002948
:105010000BDAD3F8001941F00061C3F80019D3F896
:10502000001941F08041C3F80019C46B012101FA55
:1050300002F224EA0204C463C16921EA0202C261E5
:10504000D3F80019144A0A40C3F80029002010BD03
:10505000D3F8001B00290BDAD3F8001B41F00061E4
:10506000C3F8001BD3F8001B41F08041C3F8001BBC
:10507000C46B4FF4803101FA02F224EA0204C463E3
:10508000C16921EA0202C261D3F8001B034A0A4047
:10509000C3F8002BDAE700BF007833EC0078F3EFB9
:1050A00082B000234A7801930B78012A4FEA431318
:1050B0001ED100F51060C118C258002A02DB002082
:1050C00002B07047C25842F00062C250C25842F06B
:1050D0008042C25042F21072019B01330193019B46
:1050E000934201D90120EBE70B68002BF4DBE6E7E4
:1050F00000F53060C118C258002AE0DAC25842F008
:105100000062C250C25842F08042C25042F2107255
:10511000019B01330193019B9342E3D80B68002B61
:10512000F6DBCCE710B59DF8084044B903330132F3
:105130009B0800EB023001EB83038B4201D100207E
:1051400010BD51F8042B0260F7E700002DE9F34190
:105150004B780C690F79DFF8F0E1DFF8F081164643
:105160000A78012B00EB421540F0978005F5106C92
:10517000DCF8103074BB03EA0E03CCF81030DCF816
:10518000103043F40023CCF81030DCF8103003EA80
:105190000803012ECCF8103057D1CB690BB1CCF8F5
:1051A0001430012F0CD1D0F8083813F4807FD5F8D3
:1051B00000390CBF43F0005343F08053C5F8003969
:1051C000D5F8003943F00443C5F80039002002B097
:1051D000BDE8F08103EA0803CCF81030DCF81030A9
:1051E00003EA0E03CCF810308B687AB99C4288BF72
:1051F0000B61DCF8103043F40023CCF810300B695D
:10520000DCF81040C3F312032343C2E71C44013C03
:10521000B4FBF3F44B4BDCF810E01FFA84F803EA1C
:10522000C44444EA0E04012FCCF81040E7D1DCF866
:10523000103023F0C043CCF81030DCF810404FEAB7
:10524000487303F0C0432343D7E7D5F80039012F53
:1052500043F00443C5F800390B690BD0002BB5D0DF
:10526000D0F8341802F00F02012393400B43C0F82A
:105270003438ABE7D0F8084814F4807FD5F80049FB
:105280000CBF44F0005444F08054C5F80049009627
:10529000C9689BB2FFF746FF98E7D5F8103B03EAD1
:1052A0000803C5F8103BD5F8103B03EA0E0305F5DB
:1052B000306CCCF810308B685ABB04B10B610B62B8
:1052C000DCF81020C3F312031343CCF81030DCF8E1
:1052D000103043F40023012ECCF8103003D1CB68FA
:1052E0000BB1CCF81430012F0CD1D0F8083813F4DE
:1052F000807FD5F8003B0CBF43F0005343F0805350
:10530000C5F8003BD5F8003B43F00443C5F8003B2B
:105310005CE7002CD4D01C440A4ADCF810E0013CC5
:10532000B4FBF3F4A4B202EAC442634342EA0E02BD
:105330000B62CCF81020DCF81020C3F312031343E7
:10534000C9E700BF0000F81FFFFF07E00000F8FFFB
:10535000034670B50020940803F5805502F003025F
:10536000A04210D301EB840062B103F580531C68A6
:105370000023D90024FA01F1C154013399B28A42C1
:10538000F7D1104470BD2E6841F820600130E7E786
:105390004A780B78012A00EB431012D1D0F800298B
:1053A000002A06DB2BB1D0F8003923F08043C0F887
:1053B0000039D0F8003943F40013C0F80039002058
:1053C0007047D0F8002B002A06DB2BB1D0F8003B49
:1053D00023F08043C0F8003BD0F8003B43F40013B7
:1053E000C0F8003BEBE70B784A7800EB43100B79F1
:1053F000012AA3F10203DBB20FD1D0F80029012B5F
:1054000022F40012C0F8002905D8D0F8003943F082
:105410008053C0F8003900207047D0F8002B22F4E8
:105420000012012BC0F8002B9EBFD0F8003B43F0C8
:105430008053C0F8003BEEE7D0F8003823F4FE6359
:10544000C0F80038D0F80038090101F4FE611943B2
:10545000C0F8001800207047D0F8003E23F0030386
:10546000C0F8003ED0F8043823F00203C0F8043836
:1054700000207047D0F8003E23F00303C0F8003E40
:10548000D0F8043843F00203C0F804380020704715
:105490004269806910407047D0F8183800F5006004
:1054A000C0691840000C7047D0F8183800F500604B
:1054B000C069184080B2704700EB411100F50060F0
:1054C000D1F8082B406910407047D0F81028D0F868
:1054D000343800EB411001F00F01CB4000F51060B3
:1054E000DB018068DBB2134318407047406900F06D
:1054F00001007047D0F8003923F4FF6323F007035D
:10550000C0F80039D0F8043843F48073C0F8043888
:105510000020704730B5056C104CA54200F5306393
:1055200003D9D0F8004B002C16DB00241C611C6949
:1055300044F400241C611C6944F018041C611C69BB
:10554000012944F0C0441C6101BF5A61D0F8003BFE
:1055500043F08023C0F8003B002030BD0A30544F98
:10556000D0F8D43200EB830010B5D0F8C0428CB133
:10557000D0F8C4321BB194F80002FF2801D10020FA
:1055800010BD9B6894F8012221469847FF2384F8B8
:105590000032F4E70320F3E70A2303800048704752
:1055A0009401002070B5822106460F4800F085FB6B
:1055B000012105460C4800F080FB812104460A4881
:1055C00000F07BFB0DB11022AA711CB140222271A8
:1055D0000022627118B140220271002242714323FD
:1055E0000148338070BD00BF18010020FFF7DABF0B
:1055F00070B5822106460F4800F05FFB0121054689
:105600000C4800F05AFB812104460A4800F055FB83
:105610000DB11022AA711CB1002222710222627106
:1056200018B10022027102224271432301483380E3
:1056300070BD00BF1801002038B5D0F8D432B033A7
:10564000044650F823508DB100F0D2FFD4F8D43284
:10565000C5F80C0204EB8304D5F80402D4F8C43274
:1056600005F50371DB689847002038BD0320FCE78F
:10567000F8B5D0F8D462D0F8C87200EB86060A46B6
:10568000D6F8C05225B301F00F0C142404FB0C040F
:1056900063697BB14FF0240E0EFB0C77FF69B3FBFF
:1056A000F7FC07FB1C332BB963611A4600F0E8FFD7
:1056B0000020F8BD0023C5F81432D6F8C4321B69A7
:1056C000002BF5D0D5F8080205F504719847EFE7EF
:1056D0000320EEE7D0F8D432F7B500EB83030022C5
:1056E000D3F8C0628DF8052004460D46ADF80620BB
:1056F000002E65D091F800C01CF0600229D0202A4D
:105700005AD1CA884F78F2B11CF0800F0ED0D3F86E
:10571000C43231469B6838469847EA88072A28BF32
:1057200007223146204600F029FD09E0402A28BF23
:10573000402286F8007286F80122314600F034FDDE
:10574000002003B0F0BDD3F8C43238469B689847B8
:10575000F6E74B780B2B2FD801A252F823F000BFAD
:105760009157000841570008B9570008B957000879
:10577000B9570008B9570008B9570008B9570008C9
:10578000B9570008B9570008A1570008B1570008D9
:1057900090F89C32032B0FD102220DF10601C1E7D4
:1057A00090F89C32032B07D101220DF10501B9E7D6
:1057B00090F89C32032BC3D02946204600F0B7FC5A
:1057C0000320BEE738B504460025812100F034FFF0
:1057D000012184F83750204600F02EFF84F87751DD
:1057E0008221204600F028FFD4F8D43284F84B50B0
:1057F00004EB83036564D3F8C0228AB1D3F8C432C2
:105800005B689847D4F8D432B03354F8230000F0E2
:10581000F7FED4F8D432B03344F82350C4F8BC5265
:10582000002038BDF8B504464FF4077000F0E4FEE0
:10583000054630B9D4F8D432B03344F823000220FE
:1058400046E04FF40772002101F02CFAD4F8D4326C
:10585000B03344F82350237CC4F8BC52CBBB4FF484
:10586000007381210222204600F0DAFE012184F833
:1058700037104FF400730222204600F0D1FE0126BB
:105880001023032263648221082384F87761204671
:1058900000F0C6FED4F8D43284F84B6004EB8303E6
:1058A0000027D3F8C432C5F804721B689847D5F8AE
:1058B0000422C5F81472C5F81872002ABFD0237CE0
:1058C00093B94FF400733146204600F0E2FE002009
:1058D000F8BD402381210222204600F0A1FE0121D3
:1058E00084F837104023C6E74023ECE739B1D0F8FD
:1058F000D43200EB8300C0F8C412002070470320AC
:105900007047D0F8D432B03350F823302BB1C3F8FD
:105910000812C3F810220020704703207047D0F807
:10592000D432B03350F823301BB1C3F80412002036
:10593000704703207047D0F8D432B03310B550F818
:1059400023207AB1D2F8144201236CB9C2F8143280
:10595000D2F810328362D2F80822812100F090FE42
:10596000204610BD0320FCE71846FAE7D0F8D42201
:10597000B03208B550F8222062B1037CD2F804227C
:1059800033B94FF40073012100F083FE002008BDFD
:105990004023F8E70320FAE778B10023C0F8B832D3
:1059A000C0F8C432C0F8D03209B1C0F8B412012333
:1059B00080F89C32027000F0DBBD0320704713B505
:1059C00000230446ADF8063081B1CB6AC0F8B812A6
:1059D00023B10DF106009847C4F8D002D4F8D832AC
:1059E0000133C4F8D832002002B010BD0320FBE719
:1059F00000F00DBED0F8B8320BB11B68184718463E
:105A0000704708B5D0F8B8325B689847002818BFCF
:105A1000032008BD38B5044600F2AA25284600F048
:105A20007BFB012394F8AA12C4F89432B4F8B03284
:105A3000C4F8983201F01F03012B08D0022B0CD0C0
:105A40008BB929462046BDE8384000F053B92946B5
:105A50002046BDE8384000F093BA29462046BDE80C
:105A6000384000F0BABA204601F08001BDE8384065
:105A700000F0EBBD70B5044639BBD0F89432032B6F
:105A800012D1D0F85831B0F8602193420ED9D0F835
:105A900064119B1A11449A42C0F85831C0F864113D
:105AA00038BF1A4600F091FB002070BD90F89C3280
:105AB000032B06D1D0F8B8321B6913B1C0F8D41249
:105AC0009847204600F089FBEEE790F89C32032BC4
:105AD000EAD1D0F8B8329B69002BE5D00022BDE8AE
